:020000040000FA
:100000000C9437010C9468010C9468010C946801FD
:100010000C9468010C9468010C9468010C946801BC
:100020000C9468010C9468010C9468010C946801AC
:100030000C9468010C9468010C9468010C9468019C
:100040000C9468010C9468010C9468010C9468018C
:100050000C9468010C9468010C9468010C94B2092A
:100060000C9468010C947C090C9452090C9468015E
:100070000C9468010C9468010C9468010C9468015C
:100080000C9468010C9468010C9468010C9468014C
:100090000C9468010C9468010C9468010C94FC09A0
:1000A0000C9468010C9468010C9468010C9468012C
:1000B0000C9468010C9468010C9468010C9468011C
:1000C0000C9468010C9468010C9468010C9468010C
:1000D0000C9468010C9468010C9468010C946801FC
:1000E0000C9468010C9414030C94BC010C946A01E8
:1000F0000C94200B0C9406030C94F6020C940E0343
:100100000C944F020C9422030C94BA050C94AB058A
:100110000C94D5020C94D5080C9402020C9426037E
:100120000C946C010C94CA010C9404080C94990171
:100130000C9418030C9483030C940A030C94D405B8
:100140000C94FC020C94EB020C94D0020C94020868
:100150000C94EF020C94E7020C94F3020C94CD057E
:100160000C9400030C946B010C945C060C94010637
:100170000C94AA050C941C030C94A8010C94840301
:1001800000002200250028002B002E003100340042
:1001900002010000050108010B0105050505070521
:1001A00008080808020202020A0A080804040404F3
:1001B000010101010101010103030303030303031F
:1001C000040707070C0C0C0C0C0C0C0C02020202AE
:1001D00006060606060606060B0B0B0B0B0B0B0B97
:1001E0000102102020080810204010204080020149
:1001F000020108040201010204081020408080402E
:10020000201008040201800402018040201008042C
:1002100002010804020101020408102040800102CA
:1002200004081020408000000A0B02090C0D0E0883
:1002300007030401000000000000000000000000AF
:1002400000000000000000000000000000000000AE
:10025000000012111000000000000000000000006B
:10026000000000000000000000000000200B11242E
:100270001FBECFEFD1E2DEBFCDBF00E00CBF13E069
:10028000A0E0B2E0ECEFF2E200E00BBF02C00790AA
:100290000D92A238B107D9F724E0A2E8B3E001C07B
:1002A0001D92AC3FB207E1F711E0C7E3D1E000E0F7
:1002B00006C021970109802FFE010E944010C6331D
:1002C000D10780E00807A9F70E94690B0C947C1104
:1002D0000C94000008950895AF92BF92CF92DF92E0
:1002E000EF92FF920F931F93CF93DF936C017B01EB
:1002F0008B01040F151FEB015E01AE18BF08C0177C
:10030000D10759F06991D601ED91FC910190F081EE
:10031000E02DC6011995892B79F7C501DF91CF91A1
:100320001F910F91FF90EF90DF90CF90BF90AF9013
:100330000895FC01538D448D252F30E0842F90E0EB
:10034000821B930B541710F0CF96089501970895D0
:10035000FC01918D828D981761F0A28DAE0FBF2F99
:10036000B11D5D968C91928D9F5F9F73928F90E0EF
:1003700008958FEF9FEF0895FC01918D828D98175E
:1003800031F0828DE80FF11D858D90E008958FEF9B
:100390009FEF0895FC01918D228D892F90E0805C64
:1003A0009F4F821B91098F739927089585E494E0EC
:1003B0000E94CA0121E0892B09F420E0822F0895D0
:1003C000FC01A48DA80FB92FB11DA35ABF4F2C91CA
:1003D000848D90E001968F739927848FA689B789C1
:1003E0002C93A089B1898C91837080648C93938DB8
:1003F000848D981306C00288F389E02D80818F7D5B
:1004000080830895EF92FF920F931F93CF93DF9312
:10041000EC0181E0888F9B8D8C8D98131AC0E88940
:10042000F989808185FF15C09FB7F894EE89FF890F
:100430006083E889F98980818370806480839FBFAD
:1004400081E090E0DF91CF911F910F91FF90EF90AD
:100450000895F62E0B8D10E00F5F1F4F0F731127BD
:10046000E02E8C8D8E110CC00FB607FCFACFE889F8
:10047000F989808185FFF5CFCE010E94E001F1CF9F
:10048000EB8DEC0FFD2FF11DE35AFF4FF0829FB76C
:10049000F8940B8FEA89FB8980818062CFCFCF935C
:1004A000DF93EC01888D8823B9F0AA89BB89E8899C
:1004B000F9898C9185FD03C0808186FD0DC00FB642
:1004C00007FCF7CF8C9185FFF2CF808185FFEDCFC0
:1004D000CE010E94E001E9CFDF91CF91089580E045
:1004E00090E0892B29F00E94D60181110E94000022
:1004F00080E090E0892B49F080E090E0892B29F0A2
:100500000E94000081110E94000080E090E0892B91
:1005100049F080E090E0892B29F00E9400008111D1
:100520000E94000080E090E0892B49F080E090E09C
:10053000892B29F00E94000081110C94000008957D
:10054000282F30E0F901EA5DFD4F9491F901E05266
:10055000FE4F449126563E4FF9012491222309F47F
:1005600035C0992311F191509231F8F4E92FF0E060
:100570008827E254FD4F8F4F0C944010EF02F30296
:10058000D002E702EB02D502F602FC0200030603EA
:100590000A030E0314031803D5021C0322032603C7
:1005A000809180008F7780938000E22FF0E0EE0F43
:1005B000FF1FE058FE4FA591B4918FB7F894EC91CE
:1005C000611148C040954E234C938FBF0895809190
:1005D00080008F7DE8CF80918000877FE4CF84B555
:1005E0008F7784BDE2CF84B58F7DFBCF8091B00043
:1005F0008F778093B000D9CF8091B0008F7DF9CFF5
:10060000809190008F7780939000CFCF8091900061
:100610008F7DF9CF80919000877FF5CF8091A000EA
:100620008F778093A000C1CF8091A0008F7DF9CFFC
:100630008091A000877FF5CF809120018F778093F4
:100640002001B3CF809120018F7DF9CF80912001CF
:10065000877FF5CF4E2BB8CF3FB7F8948091CB036F
:100660009091CC03A091CD03B091CE0326B5A89B69
:1006700005C02F3F19F00196A11DB11D3FBFBA2F34
:10068000A92F982F8827BC01CD01620F711D811DF4
:10069000911D42E0660F771F881F991F4A95D1F779
:1006A00008958F929F92AF92BF92CF92DF92EF9276
:1006B000FF924B015C010E942C036B017C010E94A4
:1006C0002C036C197D098E099F09683E73408105D2
:1006D0009105A8F321E0821A9108A108B10888EEDB
:1006E000C80E83E0D81EE11CF11C81149104A10402
:1006F000B10429F7FF90EF90DF90CF90BF90AF90BB
:100700009F908F900895089508952091A303260F38
:100710003327331F21323105ECF420913F04FC01D3
:1007200090E080E0243069F082E00895A091A30376
:100730002191AC014D575C4FA40FB52FB11D2C93E7
:100740000196861798F38091A303680F6093A30323
:1007500080E0089581E0089510923F0481E0809345
:100760001E041092190461E084E10E94A00261E07D
:1007700085E10E94A002E9EBF0E080818E7F80831A
:1007800080818D7F808388E48093B80085E48093A6
:10079000BC000895CF93DF9391E090938203882368
:1007A000B9F0C091B800D091BA008091BC008A7BAA
:1007B0008093BC0060E084E10E94A00260E085E1DB
:1007C0000E94A0020E94AC03D093BA00C093B8006C
:1007D000DF91CF910895CF92DF92EF92FF920F9326
:1007E0001F93CF93DF93D82FC62F613208F098C0A4
:1007F0000E942C036B017C0180913F0481116BC02E
:1008000081E080933F0480931E049FEF90931D042A
:1008100010921C049C0F90931B0480931A048091E7
:100820001A04DD0FD82BD0931A048091190481305B
:1008300009F078C0109219040E942C036B017C010E
:1008400080911A048093BB008091410490914204EE
:10085000A0914304B0914404892B8A2B8B2BA1F0E7
:100860000E942C0300914104109142042091430402
:10087000309144046C197D098E099F0906171707EA
:100880002807390708F448C08091BC0083FDD8CF01
:1008900085EC8093BC000E942C036B017C0180914D
:1008A0003F04813009F440C080911C048C1710F47F
:1008B000C0911C04E9EFF3E0AFE1B4E080E08C13F9
:1008C00055C08C2FDF91CF911F910F91FF90EF902A
:1008D000DF90CF9008958091410490914204A091BF
:1008E0004304B0914404892B8A2B8B2B09F484CFC9
:1008F0000E942C0300914104109142042091430472
:10090000309144046C197D098E099F090617170759
:100910002807390708F070CF809140040E94CA036D
:10092000C0E0CFCF85EEB5CF8091410490914204D5
:10093000A0914304B0914404892B8A2B8B2B09F49A
:10094000AECF0E942C0300914104109142042091EB
:100950004304309144046C197D098E099F090617E0
:1009600017072807390708F09ACFD6CF91919D93A2
:100970008F5FA5CF8F929F92AF92BF92CF92DF925F
:10098000EF92FF920F931F93CF93DF93D091F803D1
:10099000D13208F0D7C0182FC091F7030E942C0362
:1009A0006B017C0180913F0481116BC082E08093D8
:1009B0003F0410931E048FEF80931D0410921C04BB
:1009C000D0931B04A7EDB3E0E9EFF3E080E0D81388
:1009D00091C010921A0480911A04CC0FC82BC093B6
:1009E0001A0480911904813009F088C0109219040A
:1009F0000E942C036B017C0180911A048093BB0040
:100A00008091410490914204A0914304B091440428
:100A1000892B8A2B8B2BA1F00E942C03009141047F
:100A20001091420420914304309144046C197D09D3
:100A30008E099F09061717072807390708F442C0CF
:100A40008091BC0083FDD8CF85EC8093BC000E94D0
:100A50002C036B017C0180913F04823009F450C06B
:100A600080911D048F3F09F46FC080911D04803276
:100A700009F46CC080911D04803309F469C084E0DE
:100A800026C08091410490914204A0914304B0910A
:100A90004404892B8A2B8B2B09F484CF0E942C03CE
:100AA0008090410490904204A0904304B09044048C
:100AB0006C197D098E099F0986169706A806B90646
:100AC00008F070CF809140040E94CA0385E0109224
:100AD000D6031092F8031092D503DF91CF911F91A6
:100AE0000F91FF90EF90DF90CF90BF90AF909F90CD
:100AF0008F9008959D9191938F5F69CF85EEA5CFDB
:100B00008091410490914204A0914304B091440427
:100B1000892B8A2B8B2B09F49ECF0E942C030091EA
:100B200041041091420420914304309144046C1913
:100B30007D098E099F09061717072807390708F04E
:100B40008ACFC0CF81E0C3CF80E0C1CF82E0BFCFEA
:100B500083E0BDCF0895E091D4038091D303E817DB
:100B600030F4F0E0E15EFB4F808190E008958FEF7C
:100B70009FEF08959091D4038091D3032FEF3FEF1F
:100B8000981748F4E92FF0E0E15EFB4F208130E058
:100B90009F5F9093D403C90108958091D3039091EE
:100BA000D403891B990B0895CF92DF92EF92FF92A5
:100BB0000F931F93CF93DF937C01CB018A01209188
:100BC000D503222389F0EB016B01C40ED51ECC1591
:100BD000DD0569F06991D701ED91FC910190F081FB
:100BE000E02DC7011995F3CF642F0E948503C8013A
:100BF000DF91CF911F910F91FF90EF90DF90CF90F9
:100C00000895CF93DF931F92CDB7DEB7698320910C
:100C1000D5032223F9F02091F803203258F021E087
:100C200030E0FC013383228390E080E00F90DF917D
:100C3000CF9108958091D603E82FF0E0E952FC4F60
:100C4000998190838F5F8093D6038093F80381E02E
:100C500090E0ECCF61E0CE0101960E948503F7CFD2
:100C6000CF93C62F9091F10421E02093D503909368
:100C7000F7031092D6031092F803682F82EE94E0E7
:100C80000E9401066C2F82EE94E00E94010681E032
:100C90000E94BA0481E0CF910895EEEEF4E08087DF
:100CA0009187682F8DE390E00E9430066EE170E03E
:100CB00080E090E00C94510390E080E00895FC0106
:100CC00001900020E9F73197AF01481B590BBC0197
:100CD00085E494E00C946C018F929F92AF92BF9246
:100CE0000F931F93CF93DF93CDB7DEB7A1970FB6C6
:100CF000F894DEBF0FBECDBF19A2423008F44AE01F
:100D00008E010F5D1F4F842E912CB12CA12CA501BB
:100D100094010E941E10E62FB901CA01EA30F4F4D2
:100D2000E05DD801EE938D01232B242B252B79F741
:100D300090E080E0109719F0CD010E945F06A19627
:100D40000FB6F894DEBF0FBECDBFDF91CF911F91DC
:100D50000F91BF90AF909F908F900895E95CE1CF85
:100D6000CF93DF930E945F06EC0188E392E00E943C
:100D70005F068C0F9D1FDF91CF9108950C945F0645
:100D80004F925F926F927F928F929F92AF92BF929B
:100D9000CF92DF92EF92FF920F931F93CF936B014D
:100DA0007C01742EAC019B010E941910882399F0DC
:100DB0008BE392E0CF911F910F91FF90EF90DF9026
:100DC000CF90BF90AF909F908F907F906F905F90EB
:100DD0004F900C945F0646015701E894B7F82FEF47
:100DE0003FEF4FE75FE7C501B4010E941910811181
:100DF0000DC02FEF3FEF4FE75FE7C501B4010E9441
:100E00004F0E18161CF48FE392E0D4CF2FEF3FEF74
:100E10004FE75FE4C701B6010E94A70F18161CF444
:100E200083E492E0C7CF2FEF3FEF4FE75FECC701BE
:100E3000B6010E944F0E87FDF3CF20E030E0A901FC
:100E4000C701B6010E944F0E10E000E087FF0AC004
:100E50006DE285E494E00E9402028C01F7FAF094BE
:100E6000F7F8F094C0E060E070E080E09FE37C166B
:100E700041F020E030E040E251E40E94540ECF5FA8
:100E8000F6CFA70196010E94E30D2B013C010E94C1
:100E9000C60E4B015C014AE00E946C067C01E00E2C
:100EA000F11ECC23C1F1C501B4010E94F50E9B01D6
:100EB000AC01C301B2010E94E20D4B015C016EE284
:100EC00085E494E00E940202E80EF91EC15018F178
:100ED00020E030E040E251E4C501B4010E94AC0FD3
:100EE0002B013C010E94C60E4B01B12CA12C4AE003
:100EF000C501B4010E946C06E80EF91EC501B401DB
:100F00000E94F50E9B01AC01C301B2010E94E20DEB
:100F10004B015C01DBCFC701CF911F910F91FF9077
:100F2000EF90DF90CF90BF90AF909F908F907F9089
:100F30006F905F904F900895CF92DF92EF92FF9263
:100F4000CF93DF936B017C01F7FE1FC06DE285E458
:100F500094E00E940202EC0166277727CB016C190E
:100F60007D098E099F094AE00E946C06C80FD91FAF
:100F700088E392E00E945F068C0F9D1FDF91CF9166
:100F8000FF90EF90DF90CF9008954AE00E946C06AA
:100F9000EC01EECFCF93DF93682F70E090E080E01C
:100FA00040E10E946C06EC0188E392E00E945F063B
:100FB0008C0F9D1FDF91CF910895CF93DF93CEEEDD
:100FC000D4E09B8121E02093D5039093F703109206
:100FD000D6031092F803682F82EE94E00E94010677
:100FE00081E00E94BA0461E08B810E94EB031092C1
:100FF000D4038093D30382EE94E00E94BA05DF917C
:10100000CF9108950C94E4108F929F92AF92BF926B
:10101000CF92DF92EF92FF920F931F93CF93DF93C4
:10102000CDB7DEB762970FB6F894DEBF0FBECDBF67
:101030006C018B01FB01349680E2DF011D928A95E1
:10104000E9F784E290E0A0E0B0E0FB0180839183C7
:10105000A283B383F60184819581A681B781FB01C8
:1010600084839583A683B78383E090E0A0E0B0E01B
:1010700080879187A287B3872FB7F8948091C703A1
:101080009091C803A091C903B091CA032FBF808B70
:10109000918BA28BB38B8CE0FE013196DF011D9208
:1010A0008A95E9F77E01BDE0EB0EF11C86E0F701C1
:1010B00011928A95E9F7D60113968C9191E090935D
:1010C000D5038093F7031092D6031092F8036AE1D8
:1010D00082EE94E00E94010681E00E94BA0466E07C
:1010E000F60183810E94EB031092D4038093D30313
:1010F0006E01F3E1CF0ED11C82EE94E00E94BA059E
:10110000D7018D937D01AC15BD05B1F76D857E8549
:10111000072E000C880B990B0E94F70E20E030E0A0
:1011200040E85DE30E94AC0F4B015C016F8578895C
:10113000072E000C880B990B0E94F70E20E030E080
:1011400040E85DE30E94AC0F6B017C0169897A89FC
:10115000072E000C880B990B0E94F70E20E030E060
:1011600040E85DE30E94AC0FF801848A958AA68A64
:10117000B78AC08ED18EE28EF38E648F758F868F84
:10118000978F81E062960FB6F894DEBF0FBECDBF99
:10119000DF91CF911F910F91FF90EF90DF90CF9053
:1011A000BF90AF909F908F9008950F931F93CF9310
:1011B000DF938C01EB0188E2FB0111928A95E9F73C
:1011C0004BE050E067E472E0CE010E946D111B8697
:1011D00081E090E0A0E0B0E08C879D87AE87BF877C
:1011E000F80184819581A681B781888B998BAA8B20
:1011F000BB8B83E090E0A0E0B0E08C8B9D8BAE8B4E
:10120000BF8B1CA21DA21EA21FA2188E198E1A8EA1
:101210001B8E1C8E1D8E1E8E1F8E8AE097EDA3E204
:10122000BCE388A399A3AAA3BBA3DF91CF911F918D
:101230000F91089585ED8093BC00809141049091B9
:101240004204A0914304B09144040796A11DB11D2E
:1012500023E0B695A795979587952A95D1F7209184
:10126000BC0024FD03C010923F0408954091410446
:10127000509142046091430470914404452B462BE5
:10128000472B69F30097A105B10541F025E32A95A5
:10129000F1F700000197A109B109E1CF8091400465
:1012A0000C94CA031F920F920FB60F9211240BB623
:1012B0000F922F933F934F935F936F937F938F93EF
:1012C0009F93AF93BF93EF93FF9385E494E00E94C5
:1012D000E001FF91EF91BF91AF919F918F917F912D
:1012E0006F915F914F913F912F910F900BBE0F9097
:1012F0000FBE0F901F9018951F920F920FB60F926E
:1013000011240BB60F922F938F939F93EF93FF931C
:10131000E0915504F09156048081E0915B04F091D6
:101320005C0482FD1DC0908180915E048F5F8F738D
:1013300020915F04821741F0E0915E04F0E0EB5BE6
:10134000FB4F958F80935E04FF91EF919F918F915A
:101350002F910F900BBE0F900FBE0F901F901895FE
:101360008081F2CF1F920F920FB60F9211242F930C
:101370003F938F939F93AF93BF938091C7039091B7
:10138000C803A091C903B091CA033091C60323E0FA
:10139000230F2D3758F50196A11DB11D2093C603CB
:1013A0008093C7039093C803A093C903B093CA0363
:1013B0008091CB039091CC03A091CD03B091CE034B
:1013C0000196A11DB11D8093CB039093CC03A093F4
:1013D000CD03B093CE03BF91AF919F918F913F9179
:1013E0002F910F900FBE0F901F90189526E8230F96
:1013F0000296A11DB11DD2CF1F920F920FB60F9270
:1014000011240BB60F922F933F934F935F936F93DB
:101410007F938F939F93AF93BF93EF93FF938091AD
:10142000B900887F803609F44DC008F040C088328A
:1014300009F4A9C028F5803109F49DC0C8F48823B7
:1014400009F4FBC0883009F496C0FF91EF91BF9179
:10145000AF919F918F917F916F915F914F913F914C
:101460002F910F900BBE0F900FBE0F901F901895ED
:10147000883109F488C0803241F780931D0414C07C
:10148000803409F49DC040F48033B9F38833E9F621
:1014900080931D0485ECB0C0803509F485C0883583
:1014A00009F496C0883489F60E941A09CECF88398B
:1014B00009F48CC038F5883729F050F4883611F0DB
:1014C000803719F683E080933F041092C50357C01C
:1014D000883809F47BC0803919F0803809F0B5CF1D
:1014E0008091C503803208F071C0E091C50381E0AE
:1014F0008E0F8093C5038091BB00F0E0EB55FC4F4D
:1015000080833DC0803B39F0E0F4803A09F479C033
:10151000883A09F09ACF84E080933F041092A403A4
:101520001092A303E091D103F091D2031995809119
:10153000A30381110FC081E08093A3031092830362
:1015400009C0803C09F4A6CF883C09F4A3CF883BAE
:1015500009F07BCFE091A40381E08E0F8093A40378
:10156000F0E0ED57FC4F80818093BB009091A40385
:101570008091A30329C080911A048093BB0085EC5D
:101580008093BC0062CF90911C0480911B0498173B
:1015900058F5E0911C0481E08E0F80931C04F0E06C
:1015A000E750FC4F8081E9CFE0911C0481E08E0F71
:1015B00080931C048091BB00F0E0E750FC4F8083D7
:1015C00090911C0480911B049817C8F285E8D8CF2D
:1015D000E0911C0481E08E0F80931C048091BB007D
:1015E000F0E0E750FC4F808380911E0481115CCFB6
:1015F00081E08093190484EA8093BC0010923F0438
:1016000024CF85EC8093BC0010923F048091C503E9
:10161000803230F4E091C503F0E0EB55FC4F1082CE
:101620006091C50370E0E091CF03F091D00385EAAB
:1016300093E019951092C50308CF10921D0434CF82
:10164000E5E4F4E01382128288EE93E0A0E0B0E0DB
:1016500084839583A683B7832AE032E03183208395
:1016600025EC30E03587248724EC30E03787268767
:1016700020EC30E0318B208B21EC30E0338B228B5F
:1016800022EC30E0358B248B26EC30E0378B268B38
:10169000118E128E138E148EE2EEF4E013821282FB
:1016A00084839583A683B7838CE192E091838083C2
:1016B000EEEEF4E08EE292E09183808387E390E0A7
:1016C000A0E0B0E084839583A683B78388E2838318
:1016D0000895CF93DF93CDB7DEB7A8970FB6F894F0
:1016E000DEBF0FBECDBF789484B5826084BD84B563
:1016F000816084BD85B5826085BD85B5816085BD0D
:1017000080916E00816080936E00109281008091C4
:10171000810082608093810080918100816080934C
:101720008100809180008160809380008091B10071
:1017300084608093B1008091B00081608093B0009C
:1017400080919100826080939100809191008160EE
:1017500080939100809190008160809390008091AF
:10176000A10082608093A1008091A100816080939C
:10177000A1008091A00081608093A0008091210150
:1017800082608093210180912101816080932101F9
:101790008091200181608093200180917A00846093
:1017A00080937A0080917A00826080937A008091A1
:1017B0007A00816080937A0080917A0080688093BB
:1017C0007A001092C100E0915504F091560482E035
:1017D0008083E0915104F09152041082E09153040F
:1017E000F09154048FEC808310925D04E0915904D1
:1017F000F0915A0486E08083E0915704F0915804F8
:10180000808180618083E0915704F0915804808149
:1018100088608083E0915704F0915804808180684B
:101820008083E0915704F091580480818F7D8083FC
:101830008EE492E00E94B0068CE693E00E94B0062F
:101840001092D4031092D3031092D6031092F8038F
:101850000E94AC038AE691E09093D2038093D10377
:101860008BE691E09093D0038093CF0390E080E0EB
:101870000E94DD07803A89F068EE73E080E090E036
:101880000E94510390E080E00E94DD07803A29F039
:1018900086E692E00E94BE06FFCF90E080E00E94C4
:1018A0004D0660E28FE390E00E94300690E080E019
:1018B0000E94DD07803A39F06AE070E080E090E055
:1018C0000E945103F3CF62E370E080E090E00E9459
:1018D000510360E08EE390E00E9430066AE070E021
:1018E00080E090E00E94510360E087E090E00E9479
:1018F000300660E08FE390E00E9430066AE070E01E
:1019000080E090E00E9451038CE090E00E944D0640
:1019100064E170E080E090E00E94510368EE73E0C3
:1019200080E090E00E945103BE016F5F7F4F8EEE1A
:1019300094E00E94D50883EA92E00E94B00688EC09
:1019400092E00E94BE06CE0101960E94B00687ED8D
:1019500092E00E94BE066D857E858F8598890E94E3
:101960009C0786EE92E00E94BE0669897A898B897F
:101970009C890E949C0785EF92E00E94BE06698DBB
:101980007A8D8B8D9C8D42E00E94C00684E093E0AE
:101990000E94B00689E093E00E94BE066D8D7E8DA8
:1019A0008F8D98A142E00E94C00684E093E00E94DF
:1019B000B00688E193E00E94BE0669A17AA18BA1DE
:1019C0009CA142E00E94C00684E093E00E94B00621
:1019D00083EA92E00E94B0068CE693E00E94B00693
:1019E00064EF71E080E090E00E94510360E087E0E6
:1019F00090E00E94300689E390E00E94DD07F82E17
:101A000086E390E00E94DD07082F8AE390E00E94C1
:101A1000DD07182F68EC70E080E090E00E94510331
:101A20008CE693E00E94B00687E293E00E94BE0637
:101A30008F2D0E94CA0789E393E00E94BE06802F83
:101A40000E94CA078BE493E00E94BE06812F0E9489
:101A5000CA078CE693E00E94B00664EF71E080E074
:101A600090E00E9451030091F6041091F70490E079
:101A700080E00E944D0669E170E080E090E00E9405
:101A8000510360E087E090E00E94300660E88FE359
:101A900090E00E9430066AE070E080E090E00E94F2
:101AA0005103C8010E944D0664E170E080E090E0BF
:101AB0000E945103BE016F5F7F4F8EEE94E00E9443
:101AC00004088DE593E00E94BE066D897E898F89AA
:101AD000988D44E00E94C00681E693E00E94BE0615
:101AE000698D7A8D8B8D9C8D44E00E94C00686E6C0
:101AF00093E00E94BE066D8D7E8D8F8D98A144E08F
:101B00000E94C00685E390E00E94DD07E82EE29483
:101B1000E694E69493E0E922282F30E0A90164E0FE
:101B2000559547956A95E1F7942F9370F92E359561
:101B3000279535952795122F1370082F03708BE684
:101B400093E00E94BE06E11004C08DE693E00E947F
:101B5000BE0680E793E00E94BE066E2D70E090E026
:101B600080E04AE00E946C0685E793E00E94BE0692
:101B70006F2D70E090E080E04AE00E946C0689E7FB
:101B800093E00E94BE06612F70E090E080E04AE0A2
:101B90000E946C068DE793E00E94BE06602F70E005
:101BA00090E080E04AE00E946C068CE693E00E94A0
:101BB000B00664E670E080E090E00E9451030E946D
:101BC0006F0278CF5058BB27AA270E94FA0D0C94B9
:101BD0006D0F0E945F0F38F00E94660F20F039F4FD
:101BE0009F3F19F426F40C945C0F0EF4E095E7FB8C
:101BF0000C94560FE92F0E947E0F58F3BA17620714
:101C000073078407950720F079F4A6F50C94A00FCC
:101C10000EF4E0950B2EBA2FA02D0B01B901900107
:101C20000C01CA01A0011124FF27591B99F0593F4B
:101C300050F4503E68F11A16F040A22F232F342F93
:101C40004427585FF3CF469537952795A795F040E1
:101C50005395C9F77EF41F16BA0B620B730B840BF6
:101C6000BAF09150A1F0FF0FBB1F661F771F881FAE
:101C7000C2F70EC0BA0F621F731F841F48F4879506
:101C800077956795B795F7959E3F08F0B0CF9395F8
:101C9000880F08F09927EE0F9795879508950E9471
:101CA000320F08F481E008950E94680E0C946D0FC5
:101CB0000E94660F58F00E945F0F40F029F45F3FCA
:101CC00029F00C94560F51110C94A10F0C945C0F39
:101CD0000E947E0F68F39923B1F3552391F3951B6E
:101CE000550BBB27AA2762177307840738F09F5F3D
:101CF0005F4F220F331F441FAA1FA9F335D00E2EAA
:101D00003AF0E0E832D091505040E695001CCAF716
:101D10002BD0FE2F29D0660F771F881FBB1F2617D9
:101D200037074807AB07B0E809F0BB0B802DBF01B0
:101D3000FF2793585F4F3AF09E3F510578F00C947F
:101D4000560F0C94A10F5F3FE4F3983ED4F38695B1
:101D500077956795B795F7959F5FC9F7880F911DA0
:101D60009695879597F90895E1E0660F771F881F8C
:101D7000BB1F621773078407BA0720F0621B730B3F
:101D8000840BBA0BEE1F88F7E09508950E94860F2A
:101D900088F09F5798F0B92F9927B751B0F0E1F02C
:101DA000660F771F881F991F1AF0BA95C9F714C0DC
:101DB000B13091F00E94A00FB1E008950C94A00FF3
:101DC000672F782F8827B85F39F0B93FCCF3869515
:101DD00077956795B395D9F73EF490958095709572
:101DE00061957F4F8F4F9F4F0895E89409C097FBEF
:101DF0003EF490958095709561957F4F8F4F9F4FE2
:101E00009923A9F0F92F96E9BB279395F695879525
:101E100077956795B795F111F8CFFAF4BB0F11F4E8
:101E200060FF1BC06F5F7F4F8F4F9F4F16C088238F
:101E300011F096E911C0772321F09EE8872F762FC5
:101E400005C0662371F096E8862F70E060E02AF006
:101E50009A95660F771F881FDAF7880F96958795F2
:101E600097F90895990F0008550FAA0BE0E8FEEFC7
:101E700016161706E807F907C0F012161306E4074E
:101E8000F50798F0621B730B840B950B39F40A2647
:101E900061F0232B242B252B21F408950A2609F425
:101EA000A140A6958FEF811D811D089597F99F6729
:101EB00080E870E060E008959FEF80EC08950024D2
:101EC0000A941616170618060906089500240A949F
:101ED00012161306140605060895092E0394000C25
:101EE00011F4882352F0BB0F40F4BF2B11F460FFB4
:101EF00004C06F5F7F4F8F4F9F4F089557FD9058DD
:101F0000440F551F59F05F3F71F04795880F97FBBD
:101F1000991F61F09F3F79F0879508951216130677
:101F20001406551FF2CF4695F1DF08C016161706A6
:101F30001806991FF1CF86957105610508940895DB
:101F4000E894BB2766277727CB0197F908950E946D
:101F5000320F08F48FEF08950E94BF0F0C946D0F9D
:101F60000E945F0F38F00E94660F20F0952311F059
:101F70000C94560F0C945C0F11240C94A10F0E942A
:101F80007E0F70F3959FC1F3950F50E0551F629F30
:101F9000F001729FBB27F00DB11D639FAA27F00DC2
:101FA000B11DAA1F649F6627B00DA11D661F829FE9
:101FB0002227B00DA11D621F739FB00DA11D621FCE
:101FC000839FA00D611D221F749F3327A00D611DEB
:101FD000231F849F600D211D822F762F6A2F1124CD
:101FE0009F5750409AF0F1F088234AF0EE0FFF1F00
:101FF000BB1F661F771F881F91505040A9F79E3F57
:10200000510580F00C94560F0C94A10F5F3FE4F340
:10201000983ED4F3869577956795B795F795E795AC
:102020009F5FC1F7FE2B880F911D9695879597F9B5
:1020300008950E94320F880B990B0895A1E21A2E81
:10204000AA1BBB1BFD010DC0AA1FBB1FEE1FFF1F5C
:10205000A217B307E407F50720F0A21BB30BE40BAC
:10206000F50B661F771F881F991F1A9469F76095F3
:102070007095809590959B01AC01BD01CF010895AD
:10208000EE0FFF1F881F8BBF0790F691E02D19946C
:102090000F931F93CF93DF938230910510F482E06A
:1020A00090E0E091FA04F091FB0430E020E0B0E031
:1020B000A0E0309799F42115310509F44AC0281B96
:1020C000390B24303105D8F58A819B816115710562
:1020D00089F1FB0193838283FE0111C0408151810C
:1020E0000281138148175907E0F04817590799F4FE
:1020F000109761F012960C93129713961C933296D8
:10210000CF01DF91CF911F910F9108950093FA04B1
:102110001093FB04F4CF2115310551F042175307FA
:1021200038F0A901DB019A01BD01DF01F801C1CF3F
:10213000EF01F9CF9093FB048093FA04CDCFFE0119
:10214000E20FF31F81939193225031093983288341
:10215000D7CF2091F8043091F904232B41F420913A
:102160000202309103023093F9042093F804209185
:102170000002309101022115310541F42DB73EB71F
:102180004091040250910502241B350BE091F804A4
:10219000F091F904E217F307A0F42E1B3F0B281768
:1021A000390778F0AC014E5F5F4F2417350748F0D0
:1021B0004E0F5F1F5093F9044093F804819391935D
:1021C0009FCFF0E0E0E09CCFCF93DF930097E9F062
:1021D000FC01329713821282A091FA04B091FB04A1
:1021E000ED0130E020E01097A1F420813181820FD1
:1021F000931F2091F8043091F9042817390709F04A
:1022000061C0F093F904E093F804DF91CF91089551
:10221000EA01CE17DF07E8F54A815B819E0141158F
:102220005105B1F7E901FB83EA8349915991C40F44
:10223000D51FEC17FD0761F4808191810296840F10
:10224000951FE90199838883828193819B838A8387
:10225000F0E0E0E012968D919C9113970097B9F50C
:102260002D913C911197CD010296820F931F2091E1
:10227000F8043091F9042817390739F6309751F5E9
:102280001092FB041092FA04B093F904A093F8049E
:10229000BCCFD383C28340815181840F951FC8175F
:1022A000D90761F44E5F5F4F88819981480F591FAC
:1022B000518340838A819B819383828321153105D9
:1022C00009F0B0CFF093FB04E093FA049ECFFD0138
:1022D000DC01C0CF13821282D7CFFB01DC01415059
:1022E000504048F001900D920020C9F701C01D92A6
:1022F00041505040E0F70895F894FFCF0000FC04EF
:1023000080000000000002026C0199014F02CA0126
:10231000A801BC01000000000106D4055C06AA0566
:10232000CD05BA05AB050000000083030208840355
:102330000408D5080D0A006E616E00696E66006FB4
:10234000766600424E4F303535004F7269656E74C7
:102350006174696F6E2053656E736F72205465737C
:1023600074004F6F6F70732C206E6F20424E4F3091
:102370003535206465746563746564202E2E2E20C7
:10238000436865636B20796F757220776972696E37
:1023900067206F7220493243204144445221002D6E
:1023A0002D2D2D2D2D2D2D2D2D2D2D2D2D2D2D2D5D
:1023B0002D2D2D2D2D2D2D2D2D2D2D2D2D2D2D2D4D
:1023C0002D2D2D0053656E736F723A202020202032
:1023D000202000447269766572205665723A20208A
:1023E0002000556E697175652049443A20202020EF
:1023F000004D61782056616C75653A2020202000E0
:1024000020787878004D696E2056616C75653A20A9
:10241000202020005265736F6C7574696F6E3A20CE
:1024200020200053797374656D2053746174757343
:102430003A2030780053656C6620546573743A20F6
:102440002020202030780053797374656D20457208
:10245000726F723A2020307800583A200009593AB9
:102460002000095A3A200009002120005379733ACC
:0E2470000020473A0020413A00204D3A00007B
:10E000000D9489F10D94B2F10D94B2F10D94B2F129
:10E010000D94B2F10D94B2F10D94B2F10D94B2F1F0
:10E020000D94B2F10D94B2F10D94B2F10D94B2F1E0
:10E030000D94B2F10D94B2F10D94B2F10D94B2F1D0
:10E040000D94B2F10D94B2F10D94B2F10D94B2F1C0
:10E050000D94B2F10D94B2F10D94B2F10D94B2F1B0
:10E060000D94B2F10D94B2F10D94B2F10D94B2F1A0
:10E070000D94B2F10D94B2F10D94B2F10D94B2F190
:10E080000D94B2F10D94B2F10D94B2F10D94B2F180
:10E090000D94B2F10D94B2F10D94B2F10D94B2F170
:10E0A0000D94B2F10D94B2F10D94B2F10D94B2F160
:10E0B0000D94B2F10D94B2F10D94B2F10D94B2F150
:10E0C0000D94B2F10D94B2F10D94B2F10D94B2F140
:10E0D0000D94B2F10D94B2F10D94B2F10D94B2F130
:10E0E0000D94B2F141546D656761323536300041AF
:10E0F000726475696E6F206578706C6F72657220DE
:10E1000073746B3530305632206279204D4C530099
:10E11000426F6F746C6F616465723E004875683F52
:10E1200000436F6D70696C6564206F6E203D200048
:10E130004350552054797065202020203D20005FF9
:10E140005F4156525F415243485F5F3D2000415658
:10E1500052204C696243205665723D20004743437C
:10E160002056657273696F6E203D20004350552024
:10E1700049442020202020203D20004C6F7720663D
:10E18000757365202020203D20004869676820665F
:10E190007573652020203D200045787420667573D6
:10E1A00065202020203D20004C6F636B2066757336
:10E1B000652020203D20004D617220203720323024
:10E1C000313300312E362E3800342E332E350056A2
:10E1D00023202020414444522020206F7020636F70
:10E1E00064652020202020696E73747275637469E1
:10E1F0006F6E2061646472202020496E74657272B3
:10E20000757074006E6F20766563746F7200726A49
:10E210006D702020006A6D70200057686174207056
:10E220006F72743A00506F7274206E6F7420737541
:10E2300070706F72746564004D7573742062652030
:10E2400061206C6574746572002000577269747483
:10E25000696E672045450052656164696E672045B7
:10E26000450045452065727220636E743D00504F35
:10E27000525400303D5A65726F2061646472003FF1
:10E280003D43505520737461747300403D454550C3
:10E29000524F4D207465737400423D426C696E6B41
:10E2A000204C454400453D44756D70204545505215
:10E2B0004F4D00463D44756D7020464C415348001B
:10E2C000483D48656C70004C3D4C69737420492F83
:10E2D0004F20506F72747300513D51756974005234
:10E2E0003D44756D702052414D00563D73686F7707
:10E2F00020696E7465727275707420566563746FF0
:10E30000727300593D506F727420626C696E6B00BD
:10E310002A0011241FBECFEFD1E2DEBFCDBF01E046
:10E320000CBF12E0A0E0B2E0EEE1FDEF03E00BBFB6
:10E3300002C007900D92A030B107D9F712E0A0E01B
:10E34000B2E001C01D92AE30B107E1F70F9460F367
:10E350000D948DFE01E20EBF0FEF0DBF11241FBE05
:10E360000D9460F30D9400F020E030E040ED57E0B4
:10E3700005C0FA013197F1F72F5F3F4F2817390792
:10E38000C0F308959C01260F311DC901A0E0B0E043
:10E390002F5F3F4FABBFFC018791882361F08093D3
:10E3A000C6008091C00086FFFCCF8091C0008064D1
:10E3B0008093C000EACF08958DE08093C6008091DD
:10E3C000C00086FFFCCF8091C00080648093C000B5
:10E3D0008AE08093C6008091C00086FFFCCF8091C8
:10E3E000C00080648093C00008950F94C2F10F9420
:10E3F000DCF10895FC019081992359F09093C600B7
:10E400008091C00086FFFCCF8091C0008064809323
:10E41000C0003196992379F70895282F982F929567
:10E420009F70892F805D8A3308F0895F8093C600D2
:10E430008091C00086FFFCCF8091C00080648093F3
:10E44000C000822F8F70982F905D9A3308F0995FEB
:10E450009093C6008091C00086FFFCCF8091C000E1
:10E4600080648093C00008959C01FB01853691056E
:10E470001CF46330710594F0C90164E670E00F94F8
:10E480002EFE605D7F4F6093C6008091C00086FFC6
:10E49000FCCF8091C00080648093C0002B30310598
:10E4A00014F43297B4F0C90164E670E00F942EFEC4
:10E4B0006AE070E00F942EFE605D7F4F6093C600AF
:10E4C0008091C00086FFFCCF8091C0008064809363
:10E4D000C000C9016AE070E00F942EFEC0968093E0
:10E4E000C6008091C00086FFFCCF8091C000806490
:10E4F0008093C00008951F93182F8EE692EE60E07F
:10E500000F94C2F11093C6008091C00086FFFCCF2B
:10E510008091C00080648093C0000F94DCF11F9153
:10E5200008952F923F924F925F926F927F928F92B7
:10E530009F92AF92BF92CF92DF92EF92FF920F9392
:10E540001F93DF93CF93CDB7DEB762970FB6F894E2
:10E55000DEBF0FBECDBF382E622ECA01DB015C01CB
:10E560006D01772420E2222E2E010894411C511CBB
:10E570008BC081E0A81680E0B80681E0C80680E084
:10E58000D80628F0C601AA27BB270F940DF2BB2797
:10E59000AD2D9C2D8B2D0F940DF28A2D0F940DF225
:10E5A0002092C6008091C00086FFFCCF8091C00001
:10E5B00080648093C0009DE29093C6008091C0006B
:10E5C00086FFFCCF8091C00080648093C0002092C1
:10E5D000C6008091C00086FFFCCF8091C00080649F
:10E5E0008093C00019828601750188249924A1E0D6
:10E5F0003A1651F03A1620F0B2E03B1661F409C029
:10E600000BBFF701779007C0C7010F9477FE782EF4
:10E6100002C0F7017080872D0F940DF22092C60082
:10E620008091C00086FFFCCF8091C0008064809301
:10E63000C000872D8052F401EF70F0708F3520F408
:10E64000E40DF51D708204C0E40DF51D8EE280839B
:10E650000894E11CF11C011D111D0894811C911CE2
:10E6600090E18916910409F0C2CF80E190E0A0E02A
:10E67000B0E0A80EB91ECA1EDB1E198AC2010F9493
:10E68000FAF10F94DCF16A94662009F072CF629679
:10E690000FB6F894DEBF0FBECDBFCF91DF911F91B3
:10E6A0000F91FF90EF90DF90CF90BF90AF909F9031
:10E6B0008F907F906F905F904F903F902F90089534
:10E6C0002F923F924F925F926F927F928F929F9282
:10E6D000AF92BF92CF92DF92EF92FF920F931F9370
:10E6E000DF93CF93CDB7DEB7CD53D1400FB6F894BB
:10E6F000DEBF0FBECDBF01E20EBF0FEF0DBF94B75F
:10E70000F894A89514BE80916000886180936000A1
:10E7100010926000789493FF05C0E0910002F091A0
:10E7200001021995279A2F9A8091C00082608093E8
:10E73000C00080E18093C40088E18093C1000000A4
:10E74000EE24FF24870144E0A42EB12CCC24DD2448
:10E7500024C0C5010197F1F70894E11CF11C011DCB
:10E76000111D21E2E2162EE4F20620E0020720E06D
:10E77000120718F031E0C32ED12CC801B70127ECE5
:10E780003BE140E050E00F9441FE611571058105C9
:10E79000910519F485B1805885B98091C00087FD35
:10E7A00003C0C114D104A9F2A6014F5F5F4FC25E3E
:10E7B000DE4F59834883CE51D140C25EDE4F8881FF
:10E7C0009981CE51D140019711F00D9410FEC05D9A
:10E7D000DE4F19821882C053D14060E0C15DDE4F28
:10E7E0001882CF52D14088249924C35DDE4F19820C
:10E7F0001882CD52D140C05EDE4F188219821A8233
:10E800001B82C052D140CE5CDE4F188219821A8220
:10E810001B82C253D140EE24FF2487010BBFF701B6
:10E8200007911691C45CDE4F19830883CC53D14005
:10E830000D940BFEC25EDE4F28813981CE51D1404E
:10E840002130310509F52091C600C25EDE4F1982E4
:10E850001882CE51D14022C02F5F3F4F4F4F5F4FA4
:10E86000213082E138078AE7480780E0580780F0C6
:10E87000C45CDE4FE881F981CC53D140EF5FFF4F9C
:10E8800019F0EE27FF27099420E030E040E050E047
:10E890008091C00087FFE0CF2091C600C35DDE4FAE
:10E8A00048815981CD52D1404F5F5F4FC35DDE4FEC
:10E8B00059834883CD52D140213209F063C64A3092
:10E8C000510508F05FC60894811C911C53E0851621
:10E8D000910409F059C600E010E018C081E280936D
:10E8E000C6008091C00086FFFCCF8091C00080648C
:10E8F0008093C0002F5F3F4F2931310579F70F9486
:10E90000DCF10F5F1F4F0530110519F020E030E0FA
:10E91000E5CF10920A0210920B0210920C02109294
:10E920000D02109206021092070210920802109235
:10E930000902109202021092030210920402109235
:10E9400005028FEE90EE60E00F94F5F180E191EE1C
:10E9500060E00F94C2F18091C00087FFFCCF9091DE
:10E96000C600903608F09F759032B8F09093C600BC
:10E970008091C00086FFFCCF8091C00080648093AE
:10E98000C000A0E2A093C6008091C00086FFFCCF2B
:10E990008091C00080648093C000983409F4D7C18E
:10E9A0009934B8F4923409F459C1933458F490333B
:10E9B00019F1903308F4E3C59F33A1F1903409F0C5
:10E9C000DEC5BDC0953409F470C1963409F0D7C5D1
:10E9D00098C1923509F42BC2933538F49C3409F46C
:10E9E000F5C1913509F0CBC518C2963509F445C279
:10E9F000993509F0C4C567C483E792EE62E00F94CD
:10EA0000F5F110920602109207021092080210927D
:10EA1000090210920A0210920B0210920C0210923C
:10EA20000D0213C18FE792EE62E00F94F5F18FEEC5
:10EA300090EE60E00F94F5F181E291EE60E00F94CA
:10EA4000C2F187EB91EE60E00F94F5F180E391EE77
:10EA500060E00F94C2F184EE90EE60E00F94F5F167
:10EA60008FE391EE60E00F94C2F186E090E061E008
:10EA700070E00F9434F20F94DCF18DE591EE60E0DC
:10EA80000F94C2F189EC91EE60E00F94F5F18EE401
:10EA900091EE60E00F94C2F183EC91EE60E00F9490
:10EAA000F5F18CE691EE60E00F94C2F18EE10F94E7
:10EAB0000DF288E90F940DF281E00F940DF20F949E
:10EAC000DCF18BE791EE60E00F94C2F119E0E0E039
:10EAD000F0E010935700E4918E2F0F940DF20F94F5
:10EAE000DCF18AE891EE60E00F94C2F1E3E0F0E03F
:10EAF00010935700E4918E2F0F940DF20F94DCF1D8
:10EB000089E991EE60E00F94C2F1E2E0F0E0109349
:10EB10005700E4918E2F0F940DF20F94DCF188EAE8
:10EB200091EE60E00F94C2F1E1E0F0E01093570045
:10EB30001491812F0F940DF20F94DCF107CF8BE825
:10EB400092EE62E00F94F5F18BE492EE60E00F94A8
:10EB5000F5F10F94DCF100E010E019C0C8016F2D51
:10EB60000F947FFEFF2031F489E492EE60E00F9471
:10EB7000C2F10BC0F092C6008091C00086FFFCCFAE
:10EB80008091C00080648093C0000F5F1F4FC80158
:10EB900081519F41A0E0B0E0ABBFFC01F790BAE229
:10EBA000FB1621F0E2E000301E07C1F60F94DCF105
:10EBB0000F94DCF187E592EE60E00F94F5F10F948D
:10EBC000DCF1CC24DD2400E010E01EC0C8010F946D
:10EBD00077FEF82E882331F489E492EE60E00F94FA
:10EBE000C2F10BC08093C6008091C00086FFFCCFAD
:10EBF0008091C00080648093C000FE1419F00894D6
:10EC0000C11CD11C0F5F1F4FC80181519F41A0E063
:10EC1000B0E0ABBFFC01E790FAE2EF1621F022E092
:10EC20000030120799F60F94DCF10F94DCF182E6C4
:10EC300092EE60E00F94C2F1C60161E070E00F94C3
:10EC400034F20F94DCF10F94DCF110920202109276
:10EC50000302109204021092050278CE89E992EE26
:10EC600062E00F94F5F1279A2F9A16C02F9880E052
:10EC700090E0E0EDF7E03197F1F7019684369105E9
:10EC8000C1F72F9A80E090E0E0EDF7E03197F1F7DF
:10EC9000019684369105C1F78091C00087FFE6CFC9
:10ECA0008091C00087FFFCCF64C485EA92EE62E0E9
:10ECB0000F94F5F140910202509103026091040219
:10ECC0007091050281E020E10F9491F2809102029F
:10ECD00090910302A0910402B091050280509F4FD1
:10ECE000AF4FBF4F8093020290930302A0930402A0
:10ECF000B093050280509041A040B04008F426CE69
:10ED0000A4CF83EB92EE62E00F94F5F140910602FE
:10ED100050910702609108027091090280E020E1A1
:10ED20000F9491F28091060290910702A09108023F
:10ED3000B091090280509F4FAF4FBF4F80930602A2
:10ED400090930702A0930802B0930902FFCD80ECD4
:10ED500092EE62E00F94F5F183E792EE60E00F949B
:10ED6000F5F18FE792EE60E00F94F5F18BE892EE0B
:10ED700060E00F94F5F189E992EE60E00F94F5F10F
:10ED800085EA92EE60E00F94F5F183EB92EE60E09D
:10ED90000F94F5F180EC92EE60E00F94F5F187ECC2
:10EDA00092EE60E00F94F5F188ED92EE60E00F9442
:10EDB000F5F18FED92EE60E00F94F5F18AEE92EEB0
:10EDC00060E00F94F5F183E093EEBDCD87EC92EE19
:10EDD00062E00F94F5F181E40F947BF282E40F94EA
:10EDE0007BF283E40F947BF284E40F947BF285E45E
:10EDF0000F947BF286E40F947BF287E40F947BF20E
:10EE000088E40F947BF28AE40F947BF28BE40F94F6
:10EE10007BF28CE40F947BF299CD88ED92EE62E068
:10EE20000F94F5F1772473948824992409C48FED05
:10EE300092EE62E00F94F5F140910A0250910B02BC
:10EE400060910C0270910D0282E020E10F9491F22A
:10EE500080910A0290910B02A0910C02B0910D02D8
:10EE600080509F4FAF4FBF4F80930A0290930B0289
:10EE7000A0930C02B0930D0269CD8AEE92EE62E08F
:10EE80000F94F5F184EE90EE60E00F94F5F18FECC5
:10EE900091EE60E00F94F5F1662477244301CC5D98
:10EEA000DE4F19821882C452D140D401C301B695F5
:10EEB000A79597958795CA5DDE4F88839983AA8326
:10EEC000BB83C652D140CC5DDE4FA881B981C4520C
:10EED000D1401196CC5DDE4FB983A883C452D14096
:10EEE000CD0162E070E00F9434F2B0E2B093C6005E
:10EEF0008091C00086FFFCCF8091C0008064809329
:10EF0000C000EDE2E093C6008091C00086FFFCCF18
:10EF10008091C00080648093C000F0E2F093C6004E
:10EF20008091C00086FFFCCF8091C00080648093F8
:10EF3000C000CA5DDE4FE880F9800A811B81C6529D
:10EF4000D140BB27A12F902F8F2D0F940DF2CA5DBA
:10EF5000DE4F8881C652D1400F940DF2B0E2FB2EF5
:10EF6000F092C6008091C00086FFFCCF8091C00067
:10EF700080648093C0000DE30093C6008091C000C0
:10EF800086FFFCCF8091C00080648093C00010E2B7
:10EF90001093C6008091C00086FFFCCF8091C00016
:10EFA00080648093C0008BBEF3012791C65DDE4F65
:10EFB0002883CA52D140A22EBB24CC24DD2408943D
:10EFC000611C711C811C911C8BBEF3018791282E42
:10EFD0003324442455240894611C711C811C911C09
:10EFE0008BBEF3013791C55DDE4F3883CB52D140E4
:10EFF0000894611C711C811C911C8BBEF30147910C
:10F00000C45DDE4F4883CC52D140ADEFEA2EAFEF66
:10F01000FA2EAFEF0A2FAFEF1A2F6E0C7F1C801E57
:10F02000911E142D032DF22CEE24EA0CFB1C0C1D5A
:10F030001D1D0F940DF220E22093C6008091C000A8
:10F0400086FFFCCF8091C00080648093C000C65DC5
:10F05000DE4F8881CA52D1400F940DF230E23093D6
:10F06000C6008091C00086FFFCCF8091C000806404
:10F070008093C000C45DDE4F8881CC52D1400F9494
:10F080000DF240E24093C6008091C00086FFFCCFA5
:10F090008091C00080648093C000C55DDE4F888190
:10F0A000CB52D1400F940DF250E25093C6008091A4
:10F0B000C00086FFFCCF8091C00080648093C000B8
:10F0C0008FEFE8168FEFF80680E0080780E018075A
:10F0D00031F484E092EE60E00F94C2F1DFC0D80119
:10F0E000C7018070907CA070B0708050904CA040A0
:10F0F000B040D1F52FEF3FE340E050E0E222F322B1
:10F1000004231523CA5DDE4FA880B980CA80DB8046
:10F11000C652D140AE0CBF1CC01ED11EAA0CBB1CD7
:10F12000CC1CDD1C8EE092EE60E00F94C2F1BB2798
:10F13000A12F902F8F2D0F940DF28E2D0F940DF285
:10F1400030E23093C6008091C00086FFFCCF8091F2
:10F15000C00080648093C0004EE34093C60080915D
:10F16000C00086FFFCCF87C08EE09EEFA0E0B0E03D
:10F17000E822F9220A231B239CE0E91694E9F90608
:10F1800090E0090790E0190709F088C0C45DDE4FE0
:10F19000A881CC52D140EA2EFF2400E010E0102FCD
:10F1A0000F2DFE2CEE24C55DDE4FB881CB52D14031
:10F1B000EB0EF11C011D111DD601C501817090706F
:10F1C000A070B070DC0199278827E80EF91E0A1F8D
:10F1D0001B1F20EF30E040E050E0A222B322C42207
:10F1E000D52241E1AA0CBB1CCC1CDD1C4A95D1F7F1
:10F1F000EA0CFB1C0C1D1D1D81E090E0A0E0B0E0BE
:10F20000282239224A225B2235E1220C331C441C7D
:10F21000551C3A95D1F7E20CF31C041D151D57013E
:10F220006801AA0CBB1CCC1CDD1C85E192EE60E0E1
:10F230000F94C2F1C801AA27BB270F940DF2BB2778
:10F24000A12F902F8F2D0F940DF28E2D0F940DF274
:10F2500090E29093C6008091C00086FFFCCF809121
:10F26000C00080648093C000AEE3A093C60080918C
:10F27000C00086FFFCCF8091C00080648093C000F6
:10F28000C601AA27BB270F940DF2BB27AD2D9C2DDD
:10F290008B2D0F940DF28A2D0F940DF20F94DCF14B
:10F2A000CC5DDE4FE881F981C452D140F99709F471
:10F2B0004DCBF4E0EF2EF12C012D112D6E0C7F1CA7
:10F2C000801E911EF2CD83E093EE62E00F94F5F183
:10F2D0008AE192EE60E00F94C2F18091C00087FF56
:10F2E000FCCF1091C6001F751093C6008091C0001E
:10F2F00086FFFCCF8091C00080648093C0000F9493
:10F30000DCF1812F81548A3108F036C1163409F4BA
:10F3100095C0173490F4133409F44EC0143430F40B
:10F320001134F1F0123409F01DC130C0143409F465
:10F3300059C0153409F016C16BC01A3409F4C4C0A1
:10F340001B3438F4173409F48FC0183409F00AC19B
:10F35000A1C01B3409F4D2C01C3409F003C1E8C0B9
:10F360008FEF81B90DC082B1809582B980E090E0C5
:10F37000E0EDF7E03197F1F70196883C9105C1F790
:10F380008091C00087FFEFCF12B8EFC08FEF84B934
:10F390000DC085B1809585B980E090E0E0EDF7E0A3
:10F3A0003197F1F70196883C9105C1F78091C00033
:10F3B00087FFEFCF15B8D9C08FEF87B90DC088B1DF
:10F3C000809588B980E090E0E0EDF7E03197F1F7C3
:10F3D0000196883C9105C1F78091C00087FFEFCF6F
:10F3E00018B8C3C08FEF8AB90DC08BB180958BB9A7
:10F3F00080E090E0E0EDF7E03197F1F70196883C8E
:10F400009105C1F78091C00087FFEFCF1BB8ADC059
:10F410008FEF8DB90DC08EB180958EB980E090E0F0
:10F42000E0EDF7E03197F1F70196883C9105C1F7DF
:10F430008091C00087FFEFCF1EB897C08FEF80BBD1
:10F440000DC081B3809581BB80E090E0E0EDF7E0F6
:10F450003197F1F70196883C9105C1F78091C00082
:10F4600087FFEFCF11BA81C08FEF83BB0DC084B38C
:10F47000809584BB80E090E0E0EDF7E03197F1F714
:10F480000196883C9105C1F78091C00087FFEFCFBE
:10F4900014BA6BC08FEF809301010FC080910201FD
:10F4A00080958093020180E090E0E0EDF7E03197F5
:10F4B000F1F70196883C9105C1F78091C00087FF64
:10F4C000EDCF1092020151C08FEF809304010FC065
:10F4D0008091050180958093050180E090E0E0ED4A
:10F4E000F7E03197F1F70196883C9105C1F78091DB
:10F4F000C00087FFEDCF1092050137C08FEF8093DA
:10F5000007010FC08091080180958093080180E079
:10F5100090E0E0EDF7E03197F1F70196883C910536
:10F52000C1F78091C00087FFEDCF109208011DC088
:10F530008FEF80930A010FC080910B01809580931B
:10F540000B0180E090E0E0EDF7E03197F1F70196F4
:10F55000883C9105C1F78091C00087FFEDCF1092E4
:10F560000B0103C085E292EEEEC98091C00087FFD7
:10F57000FCCF8091C600EAC988E392EEE4C98CE131
:10F5800091EEE1C988249924933011F1943028F444
:10F59000913089F09230B8F408C0953061F195301F
:10F5A000F0F0963009F048C043C02B3109F042C951
:10F5B00091E06BE13FC96227C15DDE4F2883CF52E6
:10F5C000D14092E037C9B22FA0E0622793E032C960
:10F5D000822F90E0A82BB92B622794E02BC92E3004
:10F5E00009F039C3622795E0C05DDE4F19821882A9
:10F5F000C053D1401FC9E1E0F0E0EC0FFD1FC05D3A
:10F60000DE4F08811981C053D140E00FF11F2083E4
:10F610000F5F1F4FC05DDE4F19830883C053D14079
:10F6200062270A171B0709F005C9D80196E002C92D
:10F63000261709F010C303C0973009F0FBC87724E0
:10F640009981933109F412C19431C8F4963009F4C8
:10F65000D8C0973050F4923009F406C1933009F4C1
:10F660006DC0913009F059C253C0913109F477C08F
:10F67000923108F0BBC0903109F04FC2F5C098310B
:10F6800009F487C0993150F4953109F4EFC09531F0
:10F6900008F4C6C1963109F040C2C2C19A3109F4DA
:10F6A0006CC09A3108F491C09B3109F45BC09D3164
:10F6B00009F033C29D81903359F48F81882311F46E
:10F6C0009EE11CC0813011F091E018C098E916C08D
:10F6D000892F807591F0903539F4E0E0F0E089E011
:10F6E0008093570094910AC0983539F4E3E0F0E034
:10F6F00089E080935700949101C090E01A821B82A8
:10F700008D818C831D829E831F8227E030E009C299
:10F710001A8288E08B8381E48C8386E58D8382E581
:10F720008E8389E48F8383E5888780E589878FE5E9
:10F730008A8782E38B872BE030E0F3C18A818139AD
:10F7400041F0823941F0803911F48FE005C080E04A
:10F7500003C082E001C08AE01A828B8344C0772410
:10F76000739482C08D81882311F48EE12CC0813086
:10F7700011F081E028C088E926C01A82E1E0F0E0BB
:10F7800089E08093570084918B831C8224E030E0D1
:10F79000C8C18B81803589F48C81883039F4E2E0EE
:10F7A000F0E089E08093570084910DC0E0E0F0E044
:10F7B00089E080935700849106C0E3E0F0E089E09F
:10F7C0008093570084911A82DFCF8D81836C99E0FA
:10F7D000E1E0F0E0082E90935700E89507B600FCB2
:10F7E000FDCF1A821B8223E030E09BC180EC8A832C
:10F7F000CE5CDE4F188219821A821B82C253D1401E
:10F800008EC18A8190E0A0E0B0E0582F44273327D2
:10F8100022278B8190E0A0E0B0E0DC0199278827C7
:10F82000282B392B4A2B5B2B8D8190E0A0E0B0E098
:10F83000282B392B4A2B5B2B8C8190E0A0E0B0E089
:10F84000BA2FA92F982F8827282B392B4A2B5B2BCF
:10F85000220F331F441F551FC05EDE4F288339839C
:10F860004A835B83C052D1401A8259C13A81C95C34
:10F87000DE4F3883C753D140CA5CDE4F1882C6536F
:10F88000D1408B81C82EDD24CA5CDE4F488159816E
:10F89000C653D140C42AD52A933109F082C0CE5C28
:10F8A000DE4F88819981AA81BB81C253D1408050AB
:10F8B000904CA340B04030F583E0CE5CDE4FE88052
:10F8C000F9800A811B81C253D140F70100935B008C
:10F8D00080935700E89507B600FCFDCFCE5CDE4F65
:10F8E000088119812A813B81C253D14000501F4FAA
:10F8F0002F4F3F4FCE5CDE4F088319832A833B8313
:10F90000C253D140C05EDE4F488159816A817B81FC
:10F91000C052D140DE011B9631E08C9111962C91A2
:10F9200011971296C75CDE4F2883C953D140C85C3B
:10F93000DE4F1882C853D14090E0C85CDE4FE881AA
:10F94000F981C853D1408E2B9F2B0C01FA01609393
:10F950005B0030935700E89511244E5F5F4F6F4F67
:10F960007F4F0EEFE02E0FEFF02ECE0CDF1CC114F8
:10F97000D10499F685E0C05EDE4F088119812A81A5
:10F980003B81C052D140F80120935B008093570027
:10F99000E89507B600FCFDCF81E180935700E8951C
:10F9A00035C0C05EDE4F88819981AA81BB81C0527B
:10F9B000D140B695A795979587957C018601ABE0D8
:10F9C000AA2EB12CAC0EBD1E0BC0D5016D915D01F0
:10F9D000C7010F947FFE0894E11CF11C01501040F8
:10F9E0000115110591F7A60160E070E0440F551F65
:10F9F000661F771FC05EDE4FE880F9800A811B8199
:10FA0000C052D1404E0D5F1D601F711F1A82C05E33
:10FA1000DE4F488359836A837B83C052D1407FC0C5
:10FA2000FA80C55CDE4FF882CB53D140C65CDE4F16
:10FA30001882CA53D1408B81C82EDD24C65CDE4FAC
:10FA400008811981CA53D140C02AD12A1A828981DA
:10FA5000BE016D5F7F4F843121F59601C05EDE4FA0
:10FA6000E880F9800A811B81C052D1400BBFF701A9
:10FA700087919691DB018C9311969C936E5F7F4FDB
:10FA8000D801C7010296A11DB11DC05EDE4F88835B
:10FA90009983AA83BB83C052D14022503040F1F6F3
:10FAA00036C0C05EDE4F288139814A815B81C052F9
:10FAB000D1400894C108D108760100E010E0089414
:10FAC000C11CD11C0894E11CF11C011D111DE20E8A
:10FAD000F31E041F151F21BDBB27A52F942F832FB5
:10FAE00082BD2F5F3F4F4F4F5F4FF89A80B5DB01CC
:10FAF0008D93BD012E153F054007510761F7C05E8C
:10FB0000DE4F288339834A835B83C052D1409601FC
:10FB10002D5F3F4FFB01108204C080EC8A8322E0FE
:10FB200030E08BE18093C6008091C00086FFFCCF5F
:10FB30008091C00080648093C000C15DDE4FF88179
:10FB4000CF52D140F093C6008091C00086FFFCCF19
:10FB50008091C00080648093C000432F3093C60022
:10FB60008091C00086FFFCCF8091C00080648093AC
:10FB7000C000922F2093C6008091C00086FFFCCF6A
:10FB80008091C00080648093C0008EE08093C600A6
:10FB90008091C00086FFFCCF8091C000806480937C
:10FBA000C00065E1C15DDE4FE880CF52D1406E25D7
:10FBB00069276427FE01319610C090819093C6009A
:10FBC0008091C00086FFFCCF31968091C000806498
:10FBD0008093C0006927215030402115310569F715
:10FBE0006093C6008091C00086FFFCCF8091C0006A
:10FBF00080648093C00085B1805885B9772081F4F6
:10FC0000C15DDE4F0881CF52D1400F5FC15DDE4F35
:10FC10000883CF52D14090E0A0E0B0E00D941AF4F8
:10FC200027982F9880E090E020ED37E0F901319798
:10FC3000F1F7019684369105C9F700008091C00064
:10FC40008D7F8093C00081E180935700E895EE2777
:10FC5000FF270994FFCF90E00D941AF497FB092E2B
:10FC600007260AD077FD04D02ED006D000201AF443
:10FC7000709561957F4F0895F6F7909581959F4F08
:10FC80000895A1E21A2EAA1BBB1BFD010DC0AA1FDD
:10FC9000BB1FEE1FFF1FA217B307E407F50720F0F5
:10FCA000A21BB30BE40BF50B661F771F881F991F70
:10FCB0001A9469F760957095809590959B01AC01B9
:10FCC000BD01CF010895AA1BBB1B51E107C0AA1FAC
:10FCD000BB1FA617B70710F0A61BB70B881F991FED
:10FCE0005A95A9F780959095BC01CD010895F99991
:10FCF000FECF92BD81BDF89A992780B50895262F31
:10FD0000F999FECF1FBA92BD81BD20BD0FB6F89400
:0EFD1000FA9AF99A0FBE01960895F894FFCF63
:00000001FF
