:100000000C9437010C9468010C9468010C946801FD
:100010000C9468010C9468010C9468010C946801BC
:100020000C9468010C9468010C9468010C946801AC
:100030000C9468010C9468010C9468010C9468019C
:100040000C9468010C9468010C9468010C9468018C
:100050000C9468010C9468010C9468010C94B2092A
:100060000C9468010C947C090C9452090C9468015E
:100070000C9468010C9468010C9468010C9468015C
:100080000C9468010C9468010C9468010C9468014C
:100090000C9468010C9468010C9468010C94FC09A0
:1000A0000C9468010C9468010C9468010C9468012C
:1000B0000C9468010C9468010C9468010C9468011C
:1000C0000C9468010C9468010C9468010C9468010C
:1000D0000C9468010C9468010C9468010C946801FC
:1000E0000C9468010C9414030C94BC010C946A01E8
:1000F0000C94200B0C9406030C94F6020C940E0343
:100100000C944F020C9422030C94BA050C94AB058A
:100110000C94D5020C94D5080C9402020C9426037E
:100120000C946C010C94CA010C9404080C94990171
:100130000C9418030C9483030C940A030C94D405B8
:100140000C94FC020C94EB020C94D0020C94020868
:100150000C94EF020C94E7020C94F3020C94CD057E
:100160000C9400030C946B010C945C060C94010637
:100170000C94AA050C941C030C94A8010C94840301
:1001800000002200250028002B002E003100340042
:1001900002010000050108010B0105050505070521
:1001A00008080808020202020A0A080804040404F3
:1001B000010101010101010103030303030303031F
:1001C000040707070C0C0C0C0C0C0C0C02020202AE
:1001D00006060606060606060B0B0B0B0B0B0B0B97
:1001E0000102102020080810204010204080020149
:1001F000020108040201010204081020408080402E
:10020000201008040201800402018040201008042C
:1002100002010804020101020408102040800102CA
:1002200004081020408000000A0B02090C0D0E0883
:1002300007030401000000000000000000000000AF
:1002400000000000000000000000000000000000AE
:10025000000012111000000000000000000000006B
:10026000000000000000000000000000200B11242E
:100270001FBECFEFD1E2DEBFCDBF00E00CBF13E069
:10028000A0E0B2E0ECEFF2E200E00BBF02C00790AA
:100290000D92A238B107D9F724E0A2E8B3E001C07B
:1002A0001D92AC3FB207E1F711E0C7E3D1E000E0F7
:1002B00006C021970109802FFE010E944010C6331D
:1002C000D10780E00807A9F70E94690B0C947C1104
:1002D0000C94000008950895AF92BF92CF92DF92E0
:1002E000EF92FF920F931F93CF93DF936C017B01EB
:1002F0008B01040F151FEB015E01AE18BF08C0177C
:10030000D10759F06991D601ED91FC910190F081EE
:10031000E02DC6011995892B79F7C501DF91CF91A1
:100320001F910F91FF90EF90DF90CF90BF90AF9013
:100330000895FC01538D448D252F30E0842F90E0EB
:10034000821B930B541710F0CF96089501970895D0
:10035000FC01918D828D981761F0A28DAE0FBF2F99
:10036000B11D5D968C91928D9F5F9F73928F90E0EF
:1003700008958FEF9FEF0895FC01918D828D98175E
:1003800031F0828DE80FF11D858D90E008958FEF9B
:100390009FEF0895FC01918D228D892F90E0805C64
:1003A0009F4F821B91098F739927089585E494E0EC
:1003B0000E94CA0121E0892B09F420E0822F0895D0
:1003C000FC01A48DA80FB92FB11DA35ABF4F2C91CA
:1003D000848D90E001968F739927848FA689B789C1
:1003E0002C93A089B1898C91837080648C93938DB8
:1003F000848D981306C00288F389E02D80818F7D5B
:1004000080830895EF92FF920F931F93CF93DF9312
:10041000EC0181E0888F9B8D8C8D98131AC0E88940
:10042000F989808185FF15C09FB7F894EE89FF890F
:100430006083E889F98980818370806480839FBFAD
:1004400081E090E0DF91CF911F910F91FF90EF90AD
:100450000895F62E0B8D10E00F5F1F4F0F731127BD
:10046000E02E8C8D8E110CC00FB607FCFACFE889F8
:10047000F989808185FFF5CFCE010E94E001F1CF9F
:10048000EB8DEC0FFD2FF11DE35AFF4FF0829FB76C
:10049000F8940B8FEA89FB8980818062CFCFCF935C
:1004A000DF93EC01888D8823B9F0AA89BB89E8899C
:1004B000F9898C9185FD03C0808186FD0DC00FB642
:1004C00007FCF7CF8C9185FFF2CF808185FFEDCFC0
:1004D000CE010E94E001E9CFDF91CF91089580E045
:1004E00090E0892B29F00E94D60181110E94000022
:1004F00080E090E0892B49F080E090E0892B29F0A2
:100500000E94000081110E94000080E090E0892B91
:1005100049F080E090E0892B29F00E9400008111D1
:100520000E94000080E090E0892B49F080E090E09C
:10053000892B29F00E94000081110C94000008957D
:10054000282F30E0F901EA5DFD4F9491F901E05266
:10055000FE4F449126563E4FF9012491222309F47F
:1005600035C0992311F191509231F8F4E92FF0E060
:100570008827E254FD4F8F4F0C944010EF02F30296
:10058000D002E702EB02D502F602FC0200030603EA
:100590000A030E0314031803D5021C0322032603C7
:1005A000809180008F7780938000E22FF0E0EE0F43
:1005B000FF1FE058FE4FA591B4918FB7F894EC91CE
:1005C000611148C040954E234C938FBF0895809190
:1005D00080008F7DE8CF80918000877FE4CF84B555
:1005E0008F7784BDE2CF84B58F7DFBCF8091B00043
:1005F0008F778093B000D9CF8091B0008F7DF9CFF5
:10060000809190008F7780939000CFCF8091900061
:100610008F7DF9CF80919000877FF5CF8091A000EA
:100620008F778093A000C1CF8091A0008F7DF9CFFC
:100630008091A000877FF5CF809120018F778093F4
:100640002001B3CF809120018F7DF9CF80912001CF
:10065000877FF5CF4E2BB8CF3FB7F8948091CB036F
:100660009091CC03A091CD03B091CE0326B5A89B69
:1006700005C02F3F19F00196A11DB11D3FBFBA2F34
:10068000A92F982F8827BC01CD01620F711D811DF4
:10069000911D42E0660F771F881F991F4A95D1F779
:1006A00008958F929F92AF92BF92CF92DF92EF9276
:1006B000FF924B015C010E942C036B017C010E94A4
:1006C0002C036C197D098E099F09683E73408105D2
:1006D0009105A8F321E0821A9108A108B10888EEDB
:1006E000C80E83E0D81EE11CF11C81149104A10402
:1006F000B10429F7FF90EF90DF90CF90BF90AF90BB
:100700009F908F900895089508952091A303260F38
:100710003327331F21323105ECF420913F04FC01D3
:1007200090E080E0243069F082E00895A091A30376
:100730002191AC014D575C4FA40FB52FB11D2C93E7
:100740000196861798F38091A303680F6093A30323
:1007500080E0089581E0089510923F0481E0809345
:100760001E041092190461E084E10E94A00261E07D
:1007700085E10E94A002E9EBF0E080818E7F80831A
:1007800080818D7F808388E48093B80085E48093A6
:10079000BC000895CF93DF9391E090938203882368
:1007A000B9F0C091B800D091BA008091BC008A7BAA
:1007B0008093BC0060E084E10E94A00260E085E1DB
:1007C0000E94A0020E94AC03D093BA00C093B8006C
:1007D000DF91CF910895CF92DF92EF92FF920F9326
:1007E0001F93CF93DF93D82FC62F613208F098C0A4
:1007F0000E942C036B017C0180913F0481116BC02E
:1008000081E080933F0480931E049FEF90931D042A
:1008100010921C049C0F90931B0480931A048091E7
:100820001A04DD0FD82BD0931A048091190481305B
:1008300009F078C0109219040E942C036B017C010E
:1008400080911A048093BB008091410490914204EE
:10085000A0914304B0914404892B8A2B8B2BA1F0E7
:100860000E942C0300914104109142042091430402
:10087000309144046C197D098E099F0906171707EA
:100880002807390708F448C08091BC0083FDD8CF01
:1008900085EC8093BC000E942C036B017C0180914D
:1008A0003F04813009F440C080911C048C1710F47F
:1008B000C0911C04E9EFF3E0AFE1B4E080E08C13F9
:1008C00055C08C2FDF91CF911F910F91FF90EF902A
:1008D000DF90CF9008958091410490914204A091BF
:1008E0004304B0914404892B8A2B8B2B09F484CFC9
:1008F0000E942C0300914104109142042091430472
:10090000309144046C197D098E099F090617170759
:100910002807390708F070CF809140040E94CA036D
:10092000C0E0CFCF85EEB5CF8091410490914204D5
:10093000A0914304B0914404892B8A2B8B2B09F49A
:10094000AECF0E942C0300914104109142042091EB
:100950004304309144046C197D098E099F090617E0
:1009600017072807390708F09ACFD6CF91919D93A2
:100970008F5FA5CF8F929F92AF92BF92CF92DF925F
:10098000EF92FF920F931F93CF93DF93D091F803D1
:10099000D13208F0D7C0182FC091F7030E942C0362
:1009A0006B017C0180913F0481116BC082E08093D8
:1009B0003F0410931E048FEF80931D0410921C04BB
:1009C000D0931B04A7EDB3E0E9EFF3E080E0D81388
:1009D00091C010921A0480911A04CC0FC82BC093B6
:1009E0001A0480911904813009F088C0109219040A
:1009F0000E942C036B017C0180911A048093BB0040
:100A00008091410490914204A0914304B091440428
:100A1000892B8A2B8B2BA1F00E942C03009141047F
:100A20001091420420914304309144046C197D09D3
:100A30008E099F09061717072807390708F442C0CF
:100A40008091BC0083FDD8CF85EC8093BC000E94D0
:100A50002C036B017C0180913F04823009F450C06B
:100A600080911D048F3F09F46FC080911D04803276
:100A700009F46CC080911D04803309F469C084E0DE
:100A800026C08091410490914204A0914304B0910A
:100A90004404892B8A2B8B2B09F484CF0E942C03CE
:100AA0008090410490904204A0904304B09044048C
:100AB0006C197D098E099F0986169706A806B90646
:100AC00008F070CF809140040E94CA0385E0109224
:100AD000D6031092F8031092D503DF91CF911F91A6
:100AE0000F91FF90EF90DF90CF90BF90AF909F90CD
:100AF0008F9008959D9191938F5F69CF85EEA5CFDB
:100B00008091410490914204A0914304B091440427
:100B1000892B8A2B8B2B09F49ECF0E942C030091EA
:100B200041041091420420914304309144046C1913
:100B30007D098E099F09061717072807390708F04E
:100B40008ACFC0CF81E0C3CF80E0C1CF82E0BFCFEA
:100B500083E0BDCF0895E091D4038091D303E817DB
:100B600030F4F0E0E15EFB4F808190E008958FEF7C
:100B70009FEF08959091D4038091D3032FEF3FEF1F
:100B8000981748F4E92FF0E0E15EFB4F208130E058
:100B90009F5F9093D403C90108958091D3039091EE
:100BA000D403891B990B0895CF92DF92EF92FF92A5
:100BB0000F931F93CF93DF937C01CB018A01209188
:100BC000D503222389F0EB016B01C40ED51ECC1591
:100BD000DD0569F06991D701ED91FC910190F081FB
:100BE000E02DC7011995F3CF642F0E948503C8013A
:100BF000DF91CF911F910F91FF90EF90DF90CF90F9
:100C00000895CF93DF931F92CDB7DEB7698320910C
:100C1000D5032223F9F02091F803203258F021E087
:100C200030E0FC013383228390E080E00F90DF917D
:100C3000CF9108958091D603E82FF0E0E952FC4F60
:100C4000998190838F5F8093D6038093F80381E02E
:100C500090E0ECCF61E0CE0101960E948503F7CFD2
:100C6000CF93C62F9091F10421E02093D503909368
:100C7000F7031092D6031092F803682F82EE94E0E7
:100C80000E9401066C2F82EE94E00E94010681E032
:100C90000E94BA0481E0CF910895EEEEF4E08087DF
:100CA0009187682F8DE390E00E9430066EE170E03E
:100CB00080E090E00C94510390E080E00895FC0106
:100CC00001900020E9F73197AF01481B590BBC0197
:100CD00085E494E00C946C018F929F92AF92BF9246
:100CE0000F931F93CF93DF93CDB7DEB7A1970FB6C6
:100CF000F894DEBF0FBECDBF19A2423008F44AE01F
:100D00008E010F5D1F4F842E912CB12CA12CA501BB
:100D100094010E941E10E62FB901CA01EA30F4F4D2
:100D2000E05DD801EE938D01232B242B252B79F741
:100D300090E080E0109719F0CD010E945F06A19627
:100D40000FB6F894DEBF0FBECDBFDF91CF911F91DC
:100D50000F91BF90AF909F908F900895E95CE1CF85
:100D6000CF93DF930E945F06EC0188E392E00E943C
:100D70005F068C0F9D1FDF91CF9108950C945F0645
:100D80004F925F926F927F928F929F92AF92BF929B
:100D9000CF92DF92EF92FF920F931F93CF936B014D
:100DA0007C01742EAC019B010E941910882399F0DC
:100DB0008BE392E0CF911F910F91FF90EF90DF9026
:100DC000CF90BF90AF909F908F907F906F905F90EB
:100DD0004F900C945F0646015701E894B7F82FEF47
:100DE0003FEF4FE75FE7C501B4010E941910811181
:100DF0000DC02FEF3FEF4FE75FE7C501B4010E9441
:100E00004F0E18161CF48FE392E0D4CF2FEF3FEF74
:100E10004FE75FE4C701B6010E94A70F18161CF444
:100E200083E492E0C7CF2FEF3FEF4FE75FECC701BE
:100E3000B6010E944F0E87FDF3CF20E030E0A901FC
:100E4000C701B6010E944F0E10E000E087FF0AC004
:100E50006DE285E494E00E9402028C01F7FAF094BE
:100E6000F7F8F094C0E060E070E080E09FE37C166B
:100E700041F020E030E040E251E40E94540ECF5FA8
:100E8000F6CFA70196010E94E30D2B013C010E94C1
:100E9000C60E4B015C014AE00E946C067C01E00E2C
:100EA000F11ECC23C1F1C501B4010E94F50E9B01D6
:100EB000AC01C301B2010E94E20D4B015C016EE284
:100EC00085E494E00E940202E80EF91EC15018F178
:100ED00020E030E040E251E4C501B4010E94AC0FD3
:100EE0002B013C010E94C60E4B01B12CA12C4AE003
:100EF000C501B4010E946C06E80EF91EC501B401DB
:100F00000E94F50E9B01AC01C301B2010E94E20DEB
:100F10004B015C01DBCFC701CF911F910F91FF9077
:100F2000EF90DF90CF90BF90AF909F908F907F9089
:100F30006F905F904F900895CF92DF92EF92FF9263
:100F4000CF93DF936B017C01F7FE1FC06DE285E458
:100F500094E00E940202EC0166277727CB016C190E
:100F60007D098E099F094AE00E946C06C80FD91FAF
:100F700088E392E00E945F068C0F9D1FDF91CF9166
:100F8000FF90EF90DF90CF9008954AE00E946C06AA
:100F9000EC01EECFCF93DF93682F70E090E080E01C
:100FA00040E10E946C06EC0188E392E00E945F063B
:100FB0008C0F9D1FDF91CF910895CF93DF93CEEEDD
:100FC000D4E09B8121E02093D5039093F703109206
:100FD000D6031092F803682F82EE94E00E94010677
:100FE00081E00E94BA0461E08B810E94EB031092C1
:100FF000D4038093D30382EE94E00E94BA05DF917C
:10100000CF9108950C94E4108F929F92AF92BF926B
:10101000CF92DF92EF92FF920F931F93CF93DF93C4
:10102000CDB7DEB762970FB6F894DEBF0FBECDBF67
:101030006C018B01FB01349680E2DF011D928A95E1
:10104000E9F784E290E0A0E0B0E0FB0180839183C7
:10105000A283B383F60184819581A681B781FB01C8
:1010600084839583A683B78383E090E0A0E0B0E01B
:1010700080879187A287B3872FB7F8948091C703A1
:101080009091C803A091C903B091CA032FBF808B70
:10109000918BA28BB38B8CE0FE013196DF011D9208
:1010A0008A95E9F77E01BDE0EB0EF11C86E0F701C1
:1010B00011928A95E9F7D60113968C9191E090935D
:1010C000D5038093F7031092D6031092F8036AE1D8
:1010D00082EE94E00E94010681E00E94BA0466E07C
:1010E000F60183810E94EB031092D4038093D30313
:1010F0006E01F3E1CF0ED11C82EE94E00E94BA059E
:10110000D7018D937D01AC15BD05B1F76D857E8549
:10111000072E000C880B990B0E94F70E20E030E0A0
:1011200040E85DE30E94AC0F4B015C016F8578895C
:10113000072E000C880B990B0E94F70E20E030E080
:1011400040E85DE30E94AC0F6B017C0169897A89FC
:10115000072E000C880B990B0E94F70E20E030E060
:1011600040E85DE30E94AC0FF801848A958AA68A64
:10117000B78AC08ED18EE28EF38E648F758F868F84
:10118000978F81E062960FB6F894DEBF0FBECDBF99
:10119000DF91CF911F910F91FF90EF90DF90CF9053
:1011A000BF90AF909F908F9008950F931F93CF9310
:1011B000DF938C01EB0188E2FB0111928A95E9F73C
:1011C0004BE050E067E472E0CE010E946D111B8697
:1011D00081E090E0A0E0B0E08C879D87AE87BF877C
:1011E000F80184819581A681B781888B998BAA8B20
:1011F000BB8B83E090E0A0E0B0E08C8B9D8BAE8B4E
:10120000BF8B1CA21DA21EA21FA2188E198E1A8EA1
:101210001B8E1C8E1D8E1E8E1F8E8AE097EDA3E204
:10122000BCE388A399A3AAA3BBA3DF91CF911F918D
:101230000F91089585ED8093BC00809141049091B9
:101240004204A0914304B09144040796A11DB11D2E
:1012500023E0B695A795979587952A95D1F7209184
:10126000BC0024FD03C010923F0408954091410446
:10127000509142046091430470914404452B462BE5
:10128000472B69F30097A105B10541F025E32A95A5
:10129000F1F700000197A109B109E1CF8091400465
:1012A0000C94CA031F920F920FB60F9211240BB623
:1012B0000F922F933F934F935F936F937F938F93EF
:1012C0009F93AF93BF93EF93FF9385E494E00E94C5
:1012D000E001FF91EF91BF91AF919F918F917F912D
:1012E0006F915F914F913F912F910F900BBE0F9097
:1012F0000FBE0F901F9018951F920F920FB60F926E
:1013000011240BB60F922F938F939F93EF93FF931C
:10131000E0915504F09156048081E0915B04F091D6
:101320005C0482FD1DC0908180915E048F5F8F738D
:1013300020915F04821741F0E0915E04F0E0EB5BE6
:10134000FB4F958F80935E04FF91EF919F918F915A
:101350002F910F900BBE0F900FBE0F901F901895FE
:101360008081F2CF1F920F920FB60F9211242F930C
:101370003F938F939F93AF93BF938091C7039091B7
:10138000C803A091C903B091CA033091C60323E0FA
:10139000230F2D3758F50196A11DB11D2093C603CB
:1013A0008093C7039093C803A093C903B093CA0363
:1013B0008091CB039091CC03A091CD03B091CE034B
:1013C0000196A11DB11D8093CB039093CC03A093F4
:1013D000CD03B093CE03BF91AF919F918F913F9179
:1013E0002F910F900FBE0F901F90189526E8230F96
:1013F0000296A11DB11DD2CF1F920F920FB60F9270
:1014000011240BB60F922F933F934F935F936F93DB
:101410007F938F939F93AF93BF93EF93FF938091AD
:10142000B900887F803609F44DC008F040C088328A
:1014300009F4A9C028F5803109F49DC0C8F48823B7
:1014400009F4FBC0883009F496C0FF91EF91BF9179
:10145000AF919F918F917F916F915F914F913F914C
:101460002F910F900BBE0F900FBE0F901F901895ED
:10147000883109F488C0803241F780931D0414C07C
:10148000803409F49DC040F48033B9F38833E9F621
:1014900080931D0485ECB0C0803509F485C0883583
:1014A00009F496C0883489F60E941A09CECF88398B
:1014B00009F48CC038F5883729F050F4883611F0DB
:1014C000803719F683E080933F041092C50357C01C
:1014D000883809F47BC0803919F0803809F0B5CF1D
:1014E0008091C503803208F071C0E091C50381E0AE
:1014F0008E0F8093C5038091BB00F0E0EB55FC4F4D
:1015000080833DC0803B39F0E0F4803A09F479C033
:10151000883A09F09ACF84E080933F041092A403A4
:101520001092A303E091D103F091D2031995809119
:10153000A30381110FC081E08093A3031092830362
:1015400009C0803C09F4A6CF883C09F4A3CF883BAE
:1015500009F07BCFE091A40381E08E0F8093A40378
:10156000F0E0ED57FC4F80818093BB009091A40385
:101570008091A30329C080911A048093BB0085EC5D
:101580008093BC0062CF90911C0480911B0498173B
:1015900058F5E0911C0481E08E0F80931C04F0E06C
:1015A000E750FC4F8081E9CFE0911C0481E08E0F71
:1015B00080931C048091BB00F0E0E750FC4F8083D7
:1015C00090911C0480911B049817C8F285E8D8CF2D
:1015D000E0911C0481E08E0F80931C048091BB007D
:1015E000F0E0E750FC4F808380911E0481115CCFB6
:1015F00081E08093190484EA8093BC0010923F0438
:1016000024CF85EC8093BC0010923F048091C503E9
:10161000803230F4E091C503F0E0EB55FC4F1082CE
:101620006091C50370E0E091CF03F091D00385EAAB
:1016300093E019951092C50308CF10921D0434CF82
:10164000E5E4F4E01382128288EE93E0A0E0B0E0DB
:1016500084839583A683B7832AE032E03183208395
:1016600025EC30E03587248724EC30E03787268767
:1016700020EC30E0318B208B21EC30E0338B228B5F
:1016800022EC30E0358B248B26EC30E0378B268B38
:10169000118E128E138E148EE2EEF4E013821282FB
:1016A00084839583A683B7838CE192E091838083C2
:1016B000EEEEF4E08EE292E09183808387E390E0A7
:1016C000A0E0B0E084839583A683B78388E2838318
:1016D0000895CF93DF93CDB7DEB7A8970FB6F894F0
:1016E000DEBF0FBECDBF789484B5826084BD84B563
:1016F000816084BD85B5826085BD85B5816085BD0D
:1017000080916E00816080936E00109281008091C4
:10171000810082608093810080918100816080934C
:101720008100809180008160809380008091B10071
:1017300084608093B1008091B00081608093B0009C
:1017400080919100826080939100809191008160EE
:1017500080939100809190008160809390008091AF
:10176000A10082608093A1008091A100816080939C
:10177000A1008091A00081608093A0008091210150
:1017800082608093210180912101816080932101F9
:101790008091200181608093200180917A00846093
:1017A00080937A0080917A00826080937A008091A1
:1017B0007A00816080937A0080917A0080688093BB
:1017C0007A001092C100E0915504F091560482E035
:1017D0008083E0915104F09152041082E09153040F
:1017E000F09154048FEC808310925D04E0915904D1
:1017F000F0915A0486E08083E0915704F0915804F8
:10180000808180618083E0915704F0915804808149
:1018100088608083E0915704F0915804808180684B
:101820008083E0915704F091580480818F7D8083FC
:101830008EE492E00E94B0068CE693E00E94B0062F
:101840001092D4031092D3031092D6031092F8038F
:101850000E94AC038AE691E09093D2038093D10377
:101860008BE691E09093D0038093CF0390E080E0EB
:101870000E94DD07803A89F068EE73E080E090E036
:101880000E94510390E080E00E94DD07803A29F039
:1018900086E692E00E94BE06FFCF90E080E00E94C4
:1018A0004D0660E28FE390E00E94300690E080E019
:1018B0000E94DD07803A39F06AE070E080E090E055
:1018C0000E945103F3CF62E370E080E090E00E9459
:1018D000510360E08EE390E00E9430066AE070E021
:1018E00080E090E00E94510360E087E090E00E9479
:1018F000300660E08FE390E00E9430066AE070E01E
:1019000080E090E00E9451038CE090E00E944D0640
:1019100064E170E080E090E00E94510368EE73E0C3
:1019200080E090E00E945103BE016F5F7F4F8EEE1A
:1019300094E00E94D50883EA92E00E94B00688EC09
:1019400092E00E94BE06CE0101960E94B00687ED8D
:1019500092E00E94BE066D857E858F8598890E94E3
:101960009C0786EE92E00E94BE0669897A898B897F
:101970009C890E949C0785EF92E00E94BE06698DBB
:101980007A8D8B8D9C8D42E00E94C00684E093E0AE
:101990000E94B00689E093E00E94BE066D8D7E8DA8
:1019A0008F8D98A142E00E94C00684E093E00E94DF
:1019B000B00688E193E00E94BE0669A17AA18BA1DE
:1019C0009CA142E00E94C00684E093E00E94B00621
:1019D00083EA92E00E94B0068CE693E00E94B00693
:1019E00064EF71E080E090E00E94510360E087E0E6
:1019F00090E00E94300689E390E00E94DD07F82E17
:101A000086E390E00E94DD07082F8AE390E00E94C1
:101A1000DD07182F68EC70E080E090E00E94510331
:101A20008CE693E00E94B00687E293E00E94BE0637
:101A30008F2D0E94CA0789E393E00E94BE06802F83
:101A40000E94CA078BE493E00E94BE06812F0E9489
:101A5000CA078CE693E00E94B00664EF71E080E074
:101A600090E00E9451030091F6041091F70490E079
:101A700080E00E944D0669E170E080E090E00E9405
:101A8000510360E087E090E00E94300660E88FE359
:101A900090E00E9430066AE070E080E090E00E94F2
:101AA0005103C8010E944D0664E170E080E090E0BF
:101AB0000E945103BE016F5F7F4F8EEE94E00E9443
:101AC00004088DE593E00E94BE066D897E898F89AA
:101AD000988D44E00E94C00681E693E00E94BE0615
:101AE000698D7A8D8B8D9C8D44E00E94C00686E6C0
:101AF00093E00E94BE066D8D7E8D8F8D98A144E08F
:101B00000E94C00685E390E00E94DD07E82EE29483
:101B1000E694E69493E0E922282F30E0A90164E0FE
:101B2000559547956A95E1F7942F9370F92E359561
:101B3000279535952795122F1370082F03708BE684
:101B400093E00E94BE06E11004C08DE693E00E947F
:101B5000BE0680E793E00E94BE066E2D70E090E026
:101B600080E04AE00E946C0685E793E00E94BE0692
:101B70006F2D70E090E080E04AE00E946C0689E7FB
:101B800093E00E94BE06612F70E090E080E04AE0A2
:101B90000E946C068DE793E00E94BE06602F70E005
:101BA00090E080E04AE00E946C068CE693E00E94A0
:101BB000B00664E670E080E090E00E9451030E946D
:101BC0006F0278CF5058BB27AA270E94FA0D0C94B9
:101BD0006D0F0E945F0F38F00E94660F20F039F4FD
:101BE0009F3F19F426F40C945C0F0EF4E095E7FB8C
:101BF0000C94560FE92F0E947E0F58F3BA17620714
:101C000073078407950720F079F4A6F50C94A00FCC
:101C10000EF4E0950B2EBA2FA02D0B01B901900107
:101C20000C01CA01A0011124FF27591B99F0593F4B
:101C300050F4503E68F11A16F040A22F232F342F93
:101C40004427585FF3CF469537952795A795F040E1
:101C50005395C9F77EF41F16BA0B620B730B840BF6
:101C6000BAF09150A1F0FF0FBB1F661F771F881FAE
:101C7000C2F70EC0BA0F621F731F841F48F4879506
:101C800077956795B795F7959E3F08F0B0CF9395F8
:101C9000880F08F09927EE0F9795879508950E9471
:101CA000320F08F481E008950E94680E0C946D0FC5
:101CB0000E94660F58F00E945F0F40F029F45F3FCA
:101CC00029F00C94560F51110C94A10F0C945C0F39
:101CD0000E947E0F68F39923B1F3552391F3951B6E
:101CE000550BBB27AA2762177307840738F09F5F3D
:101CF0005F4F220F331F441FAA1FA9F335D00E2EAA
:101D00003AF0E0E832D091505040E695001CCAF716
:101D10002BD0FE2F29D0660F771F881FBB1F2617D9
:101D200037074807AB07B0E809F0BB0B802DBF01B0
:101D3000FF2793585F4F3AF09E3F510578F00C947F
:101D4000560F0C94A10F5F3FE4F3983ED4F38695B1
:101D500077956795B795F7959F5FC9F7880F911DA0
:101D60009695879597F90895E1E0660F771F881F8C
:101D7000BB1F621773078407BA0720F0621B730B3F
:101D8000840BBA0BEE1F88F7E09508950E94860F2A
:101D900088F09F5798F0B92F9927B751B0F0E1F02C
:101DA000660F771F881F991F1AF0BA95C9F714C0DC
:101DB000B13091F00E94A00FB1E008950C94A00FF3
:101DC000672F782F8827B85F39F0B93FCCF3869515
:101DD00077956795B395D9F73EF490958095709572
:101DE00061957F4F8F4F9F4F0895E89409C097FBEF
:101DF0003EF490958095709561957F4F8F4F9F4FE2
:101E00009923A9F0F92F96E9BB279395F695879525
:101E100077956795B795F111F8CFFAF4BB0F11F4E8
:101E200060FF1BC06F5F7F4F8F4F9F4F16C088238F
:101E300011F096E911C0772321F09EE8872F762FC5
:101E400005C0662371F096E8862F70E060E02AF006
:101E50009A95660F771F881FDAF7880F96958795F2
:101E600097F90895990F0008550FAA0BE0E8FEEFC7
:101E700016161706E807F907C0F012161306E4074E
:101E8000F50798F0621B730B840B950B39F40A2647
:101E900061F0232B242B252B21F408950A2609F425
:101EA000A140A6958FEF811D811D089597F99F6729
:101EB00080E870E060E008959FEF80EC08950024D2
:101EC0000A941616170618060906089500240A949F
:101ED00012161306140605060895092E0394000C25
:101EE00011F4882352F0BB0F40F4BF2B11F460FFB4
:101EF00004C06F5F7F4F8F4F9F4F089557FD9058DD
:101F0000440F551F59F05F3F71F04795880F97FBBD
:101F1000991F61F09F3F79F0879508951216130677
:101F20001406551FF2CF4695F1DF08C016161706A6
:101F30001806991FF1CF86957105610508940895DB
:101F4000E894BB2766277727CB0197F908950E946D
:101F5000320F08F48FEF08950E94BF0F0C946D0F9D
:101F60000E945F0F38F00E94660F20F0952311F059
:101F70000C94560F0C945C0F11240C94A10F0E942A
:101F80007E0F70F3959FC1F3950F50E0551F629F30
:101F9000F001729FBB27F00DB11D639FAA27F00DC2
:101FA000B11DAA1F649F6627B00DA11D661F829FE9
:101FB0002227B00DA11D621F739FB00DA11D621FCE
:101FC000839FA00D611D221F749F3327A00D611DEB
:101FD000231F849F600D211D822F762F6A2F1124CD
:101FE0009F5750409AF0F1F088234AF0EE0FFF1F00
:101FF000BB1F661F771F881F91505040A9F79E3F57
:10200000510580F00C94560F0C94A10F5F3FE4F340
:10201000983ED4F3869577956795B795F795E795AC
:102020009F5FC1F7FE2B880F911D9695879597F9B5
:1020300008950E94320F880B990B0895A1E21A2E81
:10204000AA1BBB1BFD010DC0AA1FBB1FEE1FFF1F5C
:10205000A217B307E407F50720F0A21BB30BE40BAC
:10206000F50B661F771F881F991F1A9469F76095F3
:102070007095809590959B01AC01BD01CF010895AD
:10208000EE0FFF1F881F8BBF0790F691E02D19946C
:102090000F931F93CF93DF938230910510F482E06A
:1020A00090E0E091FA04F091FB0430E020E0B0E031
:1020B000A0E0309799F42115310509F44AC0281B96
:1020C000390B24303105D8F58A819B816115710562
:1020D00089F1FB0193838283FE0111C0408151810C
:1020E0000281138148175907E0F04817590799F4FE
:1020F000109761F012960C93129713961C933296D8
:10210000CF01DF91CF911F910F9108950093FA04B1
:102110001093FB04F4CF2115310551F042175307FA
:1021200038F0A901DB019A01BD01DF01F801C1CF3F
:10213000EF01F9CF9093FB048093FA04CDCFFE0119
:10214000E20FF31F81939193225031093983288341
:10215000D7CF2091F8043091F904232B41F420913A
:102160000202309103023093F9042093F804209185
:102170000002309101022115310541F42DB73EB71F
:102180004091040250910502241B350BE091F804A4
:10219000F091F904E217F307A0F42E1B3F0B281768
:1021A000390778F0AC014E5F5F4F2417350748F0D0
:1021B0004E0F5F1F5093F9044093F804819391935D
:1021C0009FCFF0E0E0E09CCFCF93DF930097E9F062
:1021D000FC01329713821282A091FA04B091FB04A1
:1021E000ED0130E020E01097A1F420813181820FD1
:1021F000931F2091F8043091F9042817390709F04A
:1022000061C0F093F904E093F804DF91CF91089551
:10221000EA01CE17DF07E8F54A815B819E0141158F
:102220005105B1F7E901FB83EA8349915991C40F44
:10223000D51FEC17FD0761F4808191810296840F10
:10224000951FE90199838883828193819B838A8387
:10225000F0E0E0E012968D919C9113970097B9F50C
:102260002D913C911197CD010296820F931F2091E1
:10227000F8043091F9042817390739F6309751F5E9
:102280001092FB041092FA04B093F904A093F8049E
:10229000BCCFD383C28340815181840F951FC8175F
:1022A000D90761F44E5F5F4F88819981480F591FAC
:1022B000518340838A819B819383828321153105D9
:1022C00009F0B0CFF093FB04E093FA049ECFFD0138
:1022D000DC01C0CF13821282D7CFFB01DC01415059
:1022E000504048F001900D920020C9F701C01D92A6
:0C22F00041505040E0F70895F894FFCFF3
:1022FC000000FC0480000000000002026C01990147
:10230C004F02CA01A801BC01000000000106D4055F
:10231C005C06AA05CD05BA05AB05000000008303D9
:10232C00020884030408D5080D0A006E616E00696A
:10233C006E66006F766600424E4F303535004F7238
:10234C0069656E746174696F6E2053656E736F721C
:10235C002054657374004F6F6F70732C206E6F2058
:10236C00424E4F3035352064657465637465642066
:10237C002E2E2E20436865636B20796F7572207743
:10238C006972696E67206F72204932432041444460
:10239C005221002D2D2D2D2D2D2D2D2D2D2D2D2D75
:1023AC002D2D2D2D2D2D2D2D2D2D2D2D2D2D2D2D51
:1023BC002D2D2D2D2D2D2D0053656E736F723A2002
:1023CC0020202020202000447269766572205665FA
:1023DC00723A20202000556E697175652049443A87
:1023EC0020202020004D61782056616C75653A20C4
:1023FC002020200020787878004D696E2056616C82
:10240C0075653A20202020005265736F6C757469D5
:10241C006F6E3A2020200053797374656D205374CD
:10242C00617475733A2030780053656C662054657E
:10243C0073743A202020202030780053797374650F
:10244C006D204572726F723A2020307800583A2015
:10245C000009593A2000095A3A20000900212000AD
:10246C005379733A0020473A0020413A00204D3A04
:02247C0000005E
:00000001FF
